{
	"Joytoken/joytoken.sol": {
		"JoyToken": {
			"abi": [
				{
					"inputs": [
						{
							"internalType": "address",
							"name": "",
							"type": "address"
						}
					],
					"name": "balances",
					"outputs": [
						{
							"internalType": "uint256",
							"name": "",
							"type": "uint256"
						}
					],
					"stateMutability": "view",
					"type": "function"
				},
				{
					"inputs": [
						{
							"internalType": "address",
							"name": "_from",
							"type": "address"
						},
						{
							"internalType": "uint256",
							"name": "_value",
							"type": "uint256"
						}
					],
					"name": "burnToken",
					"outputs": [],
					"stateMutability": "nonpayable",
					"type": "function"
				},
				{
					"inputs": [
						{
							"internalType": "address",
							"name": "_reciever",
							"type": "address"
						},
						{
							"internalType": "uint256",
							"name": "_value",
							"type": "uint256"
						}
					],
					"name": "mintToken",
					"outputs": [],
					"stateMutability": "nonpayable",
					"type": "function"
				},
				{
					"inputs": [],
					"name": "tokenName",
					"outputs": [
						{
							"internalType": "string",
							"name": "",
							"type": "string"
						}
					],
					"stateMutability": "view",
					"type": "function"
				},
				{
					"inputs": [],
					"name": "tokenSymbol",
					"outputs": [
						{
							"internalType": "string",
							"name": "",
							"type": "string"
						}
					],
					"stateMutability": "view",
					"type": "function"
				},
				{
					"inputs": [],
					"name": "totalSupply",
					"outputs": [
						{
							"internalType": "uint256",
							"name": "",
							"type": "uint256"
						}
					],
					"stateMutability": "view",
					"type": "function"
				}
			],
			"devdoc": {
				"kind": "dev",
				"methods": {},
				"version": 1
			},
			"evm": {
				"assembly": "    /* \"Joytoken/joytoken.sol\":57:696  contract JoyToken {... */\n  mstore(0x40, 0x80)\n    /* \"Joytoken/joytoken.sol\":81:118  string public tokenName = \"Joy Token\" */\n  mload(0x40)\n  dup1\n  0x40\n  add\n  0x40\n  mstore\n  dup1\n  0x09\n  dup2\n  mstore\n  0x20\n  add\n  0x4a6f7920546f6b656e0000000000000000000000000000000000000000000000\n  dup2\n  mstore\n  pop\n  0x00\n  swap1\n  dup2\n  tag_1\n  swap2\n  swap1\n  tag_2\n  jump\t// in\ntag_1:\n  pop\n    /* \"Joytoken/joytoken.sol\":124:157  string public tokenSymbol = \"Joy\" */\n  mload(0x40)\n  dup1\n  0x40\n  add\n  0x40\n  mstore\n  dup1\n  0x03\n  dup2\n  mstore\n  0x20\n  add\n  0x4a6f790000000000000000000000000000000000000000000000000000000000\n  dup2\n  mstore\n  pop\n  0x01\n  swap1\n  dup2\n  tag_3\n  swap2\n  swap1\n  tag_2\n  jump\t// in\ntag_3:\n  pop\n    /* \"Joytoken/joytoken.sol\":57:696  contract JoyToken {... */\n  callvalue\n  dup1\n  iszero\n  tag_4\n  jumpi\n  0x00\n  dup1\n  revert\ntag_4:\n  pop\n  jump(tag_5)\n    /* \"#utility.yul\":7:106   */\ntag_6:\n    /* \"#utility.yul\":59:65   */\n  0x00\n    /* \"#utility.yul\":93:98   */\n  dup2\n    /* \"#utility.yul\":87:99   */\n  mload\n    /* \"#utility.yul\":77:99   */\n  swap1\n  pop\n    /* \"#utility.yul\":7:106   */\n  swap2\n  swap1\n  pop\n  jump\t// out\n    /* \"#utility.yul\":112:292   */\ntag_7:\n    /* \"#utility.yul\":160:237   */\n  0x4e487b7100000000000000000000000000000000000000000000000000000000\n    /* \"#utility.yul\":157:158   */\n  0x00\n    /* \"#utility.yul\":150:238   */\n  mstore\n    /* \"#utility.yul\":257:261   */\n  0x41\n    /* \"#utility.yul\":254:255   */\n  0x04\n    /* \"#utility.yul\":247:262   */\n  mstore\n    /* \"#utility.yul\":281:285   */\n  0x24\n    /* \"#utility.yul\":278:279   */\n  0x00\n    /* \"#utility.yul\":271:286   */\n  revert\n    /* \"#utility.yul\":298:478   */\ntag_8:\n    /* \"#utility.yul\":346:423   */\n  0x4e487b7100000000000000000000000000000000000000000000000000000000\n    /* \"#utility.yul\":343:344   */\n  0x00\n    /* \"#utility.yul\":336:424   */\n  mstore\n    /* \"#utility.yul\":443:447   */\n  0x22\n    /* \"#utility.yul\":440:441   */\n  0x04\n    /* \"#utility.yul\":433:448   */\n  mstore\n    /* \"#utility.yul\":467:471   */\n  0x24\n    /* \"#utility.yul\":464:465   */\n  0x00\n    /* \"#utility.yul\":457:472   */\n  revert\n    /* \"#utility.yul\":484:804   */\ntag_9:\n    /* \"#utility.yul\":528:534   */\n  0x00\n    /* \"#utility.yul\":565:566   */\n  0x02\n    /* \"#utility.yul\":559:563   */\n  dup3\n    /* \"#utility.yul\":555:567   */\n  div\n    /* \"#utility.yul\":545:567   */\n  swap1\n  pop\n    /* \"#utility.yul\":612:613   */\n  0x01\n    /* \"#utility.yul\":606:610   */\n  dup3\n    /* \"#utility.yul\":602:614   */\n  and\n    /* \"#utility.yul\":633:651   */\n  dup1\n    /* \"#utility.yul\":623:704   */\n  tag_31\n  jumpi\n    /* \"#utility.yul\":689:693   */\n  0x7f\n    /* \"#utility.yul\":681:687   */\n  dup3\n    /* \"#utility.yul\":677:694   */\n  and\n    /* \"#utility.yul\":667:694   */\n  swap2\n  pop\n    /* \"#utility.yul\":623:704   */\ntag_31:\n    /* \"#utility.yul\":751:753   */\n  0x20\n    /* \"#utility.yul\":743:749   */\n  dup3\n    /* \"#utility.yul\":740:754   */\n  lt\n    /* \"#utility.yul\":720:738   */\n  dup2\n    /* \"#utility.yul\":717:755   */\n  sub\n    /* \"#utility.yul\":714:798   */\n  tag_32\n  jumpi\n    /* \"#utility.yul\":770:788   */\n  tag_33\n  tag_8\n  jump\t// in\ntag_33:\n    /* \"#utility.yul\":714:798   */\ntag_32:\n    /* \"#utility.yul\":535:804   */\n  pop\n    /* \"#utility.yul\":484:804   */\n  swap2\n  swap1\n  pop\n  jump\t// out\n    /* \"#utility.yul\":810:951   */\ntag_10:\n    /* \"#utility.yul\":859:863   */\n  0x00\n    /* \"#utility.yul\":882:885   */\n  dup2\n    /* \"#utility.yul\":874:885   */\n  swap1\n  pop\n    /* \"#utility.yul\":905:908   */\n  dup2\n    /* \"#utility.yul\":902:903   */\n  0x00\n    /* \"#utility.yul\":895:909   */\n  mstore\n    /* \"#utility.yul\":939:943   */\n  0x20\n    /* \"#utility.yul\":936:937   */\n  0x00\n    /* \"#utility.yul\":926:944   */\n  keccak256\n    /* \"#utility.yul\":918:944   */\n  swap1\n  pop\n    /* \"#utility.yul\":810:951   */\n  swap2\n  swap1\n  pop\n  jump\t// out\n    /* \"#utility.yul\":957:1050   */\ntag_11:\n    /* \"#utility.yul\":994:1000   */\n  0x00\n    /* \"#utility.yul\":1041:1043   */\n  0x20\n    /* \"#utility.yul\":1036:1038   */\n  0x1f\n    /* \"#utility.yul\":1029:1034   */\n  dup4\n    /* \"#utility.yul\":1025:1039   */\n  add\n    /* \"#utility.yul\":1021:1044   */\n  div\n    /* \"#utility.yul\":1011:1044   */\n  swap1\n  pop\n    /* \"#utility.yul\":957:1050   */\n  swap2\n  swap1\n  pop\n  jump\t// out\n    /* \"#utility.yul\":1056:1163   */\ntag_12:\n    /* \"#utility.yul\":1100:1108   */\n  0x00\n    /* \"#utility.yul\":1150:1155   */\n  dup3\n    /* \"#utility.yul\":1144:1148   */\n  dup3\n    /* \"#utility.yul\":1140:1156   */\n  shl\n    /* \"#utility.yul\":1119:1156   */\n  swap1\n  pop\n    /* \"#utility.yul\":1056:1163   */\n  swap3\n  swap2\n  pop\n  pop\n  jump\t// out\n    /* \"#utility.yul\":1169:1562   */\ntag_13:\n    /* \"#utility.yul\":1238:1244   */\n  0x00\n    /* \"#utility.yul\":1288:1289   */\n  0x08\n    /* \"#utility.yul\":1276:1286   */\n  dup4\n    /* \"#utility.yul\":1272:1290   */\n  mul\n    /* \"#utility.yul\":1311:1408   */\n  tag_38\n    /* \"#utility.yul\":1341:1407   */\n  0xffffffffffffffffffffffffffffffffffffffffffffffffffffffffffffffff\n    /* \"#utility.yul\":1330:1339   */\n  dup3\n    /* \"#utility.yul\":1311:1408   */\n  tag_12\n  jump\t// in\ntag_38:\n    /* \"#utility.yul\":1429:1468   */\n  tag_39\n    /* \"#utility.yul\":1459:1467   */\n  dup7\n    /* \"#utility.yul\":1448:1457   */\n  dup4\n    /* \"#utility.yul\":1429:1468   */\n  tag_12\n  jump\t// in\ntag_39:\n    /* \"#utility.yul\":1417:1468   */\n  swap6\n  pop\n    /* \"#utility.yul\":1501:1505   */\n  dup1\n    /* \"#utility.yul\":1497:1506   */\n  not\n    /* \"#utility.yul\":1490:1495   */\n  dup5\n    /* \"#utility.yul\":1486:1507   */\n  and\n    /* \"#utility.yul\":1477:1507   */\n  swap4\n  pop\n    /* \"#utility.yul\":1550:1554   */\n  dup1\n    /* \"#utility.yul\":1540:1548   */\n  dup7\n    /* \"#utility.yul\":1536:1555   */\n  and\n    /* \"#utility.yul\":1529:1534   */\n  dup5\n    /* \"#utility.yul\":1526:1556   */\n  or\n    /* \"#utility.yul\":1516:1556   */\n  swap3\n  pop\n    /* \"#utility.yul\":1245:1562   */\n  pop\n  pop\n    /* \"#utility.yul\":1169:1562   */\n  swap4\n  swap3\n  pop\n  pop\n  pop\n  jump\t// out\n    /* \"#utility.yul\":1568:1645   */\ntag_14:\n    /* \"#utility.yul\":1605:1612   */\n  0x00\n    /* \"#utility.yul\":1634:1639   */\n  dup2\n    /* \"#utility.yul\":1623:1639   */\n  swap1\n  pop\n    /* \"#utility.yul\":1568:1645   */\n  swap2\n  swap1\n  pop\n  jump\t// out\n    /* \"#utility.yul\":1651:1711   */\ntag_15:\n    /* \"#utility.yul\":1679:1682   */\n  0x00\n    /* \"#utility.yul\":1700:1705   */\n  dup2\n    /* \"#utility.yul\":1693:1705   */\n  swap1\n  pop\n    /* \"#utility.yul\":1651:1711   */\n  swap2\n  swap1\n  pop\n  jump\t// out\n    /* \"#utility.yul\":1717:1859   */\ntag_16:\n    /* \"#utility.yul\":1767:1776   */\n  0x00\n    /* \"#utility.yul\":1800:1853   */\n  tag_43\n    /* \"#utility.yul\":1818:1852   */\n  tag_44\n    /* \"#utility.yul\":1827:1851   */\n  tag_45\n    /* \"#utility.yul\":1845:1850   */\n  dup5\n    /* \"#utility.yul\":1827:1851   */\n  tag_14\n  jump\t// in\ntag_45:\n    /* \"#utility.yul\":1818:1852   */\n  tag_15\n  jump\t// in\ntag_44:\n    /* \"#utility.yul\":1800:1853   */\n  tag_14\n  jump\t// in\ntag_43:\n    /* \"#utility.yul\":1787:1853   */\n  swap1\n  pop\n    /* \"#utility.yul\":1717:1859   */\n  swap2\n  swap1\n  pop\n  jump\t// out\n    /* \"#utility.yul\":1865:1940   */\ntag_17:\n    /* \"#utility.yul\":1908:1911   */\n  0x00\n    /* \"#utility.yul\":1929:1934   */\n  dup2\n    /* \"#utility.yul\":1922:1934   */\n  swap1\n  pop\n    /* \"#utility.yul\":1865:1940   */\n  swap2\n  swap1\n  pop\n  jump\t// out\n    /* \"#utility.yul\":1946:2215   */\ntag_18:\n    /* \"#utility.yul\":2056:2095   */\n  tag_48\n    /* \"#utility.yul\":2087:2094   */\n  dup4\n    /* \"#utility.yul\":2056:2095   */\n  tag_16\n  jump\t// in\ntag_48:\n    /* \"#utility.yul\":2117:2208   */\n  tag_49\n    /* \"#utility.yul\":2166:2207   */\n  tag_50\n    /* \"#utility.yul\":2190:2206   */\n  dup3\n    /* \"#utility.yul\":2166:2207   */\n  tag_17\n  jump\t// in\ntag_50:\n    /* \"#utility.yul\":2158:2164   */\n  dup5\n    /* \"#utility.yul\":2151:2155   */\n  dup5\n    /* \"#utility.yul\":2145:2156   */\n  sload\n    /* \"#utility.yul\":2117:2208   */\n  tag_13\n  jump\t// in\ntag_49:\n    /* \"#utility.yul\":2111:2115   */\n  dup3\n    /* \"#utility.yul\":2104:2209   */\n  sstore\n    /* \"#utility.yul\":2022:2215   */\n  pop\n    /* \"#utility.yul\":1946:2215   */\n  pop\n  pop\n  pop\n  jump\t// out\n    /* \"#utility.yul\":2221:2294   */\ntag_19:\n    /* \"#utility.yul\":2266:2269   */\n  0x00\n    /* \"#utility.yul\":2221:2294   */\n  swap1\n  jump\t// out\n    /* \"#utility.yul\":2300:2489   */\ntag_20:\n    /* \"#utility.yul\":2377:2409   */\n  tag_53\n  tag_19\n  jump\t// in\ntag_53:\n    /* \"#utility.yul\":2418:2483   */\n  tag_54\n    /* \"#utility.yul\":2476:2482   */\n  dup2\n    /* \"#utility.yul\":2468:2474   */\n  dup5\n    /* \"#utility.yul\":2462:2466   */\n  dup5\n    /* \"#utility.yul\":2418:2483   */\n  tag_18\n  jump\t// in\ntag_54:\n    /* \"#utility.yul\":2353:2489   */\n  pop\n    /* \"#utility.yul\":2300:2489   */\n  pop\n  pop\n  jump\t// out\n    /* \"#utility.yul\":2495:2681   */\ntag_21:\n    /* \"#utility.yul\":2555:2675   */\ntag_56:\n    /* \"#utility.yul\":2572:2575   */\n  dup2\n    /* \"#utility.yul\":2565:2570   */\n  dup2\n    /* \"#utility.yul\":2562:2576   */\n  lt\n    /* \"#utility.yul\":2555:2675   */\n  iszero\n  tag_58\n  jumpi\n    /* \"#utility.yul\":2626:2665   */\n  tag_59\n    /* \"#utility.yul\":2663:2664   */\n  0x00\n    /* \"#utility.yul\":2656:2661   */\n  dup3\n    /* \"#utility.yul\":2626:2665   */\n  tag_20\n  jump\t// in\ntag_59:\n    /* \"#utility.yul\":2599:2600   */\n  0x01\n    /* \"#utility.yul\":2592:2597   */\n  dup2\n    /* \"#utility.yul\":2588:2601   */\n  add\n    /* \"#utility.yul\":2579:2601   */\n  swap1\n  pop\n    /* \"#utility.yul\":2555:2675   */\n  jump(tag_56)\ntag_58:\n    /* \"#utility.yul\":2495:2681   */\n  pop\n  pop\n  jump\t// out\n    /* \"#utility.yul\":2687:3230   */\ntag_22:\n    /* \"#utility.yul\":2788:2790   */\n  0x1f\n    /* \"#utility.yul\":2783:2786   */\n  dup3\n    /* \"#utility.yul\":2780:2791   */\n  gt\n    /* \"#utility.yul\":2777:3223   */\n  iszero\n  tag_61\n  jumpi\n    /* \"#utility.yul\":2822:2860   */\n  tag_62\n    /* \"#utility.yul\":2854:2859   */\n  dup2\n    /* \"#utility.yul\":2822:2860   */\n  tag_10\n  jump\t// in\ntag_62:\n    /* \"#utility.yul\":2906:2935   */\n  tag_63\n    /* \"#utility.yul\":2924:2934   */\n  dup5\n    /* \"#utility.yul\":2906:2935   */\n  tag_11\n  jump\t// in\ntag_63:\n    /* \"#utility.yul\":2896:2904   */\n  dup2\n    /* \"#utility.yul\":2892:2936   */\n  add\n    /* \"#utility.yul\":3089:3091   */\n  0x20\n    /* \"#utility.yul\":3077:3087   */\n  dup6\n    /* \"#utility.yul\":3074:3092   */\n  lt\n    /* \"#utility.yul\":3071:3120   */\n  iszero\n  tag_64\n  jumpi\n    /* \"#utility.yul\":3110:3118   */\n  dup2\n    /* \"#utility.yul\":3095:3118   */\n  swap1\n  pop\n    /* \"#utility.yul\":3071:3120   */\ntag_64:\n    /* \"#utility.yul\":3133:3213   */\n  tag_65\n    /* \"#utility.yul\":3189:3211   */\n  tag_66\n    /* \"#utility.yul\":3207:3210   */\n  dup6\n    /* \"#utility.yul\":3189:3211   */\n  tag_11\n  jump\t// in\ntag_66:\n    /* \"#utility.yul\":3179:3187   */\n  dup4\n    /* \"#utility.yul\":3175:3212   */\n  add\n    /* \"#utility.yul\":3162:3173   */\n  dup3\n    /* \"#utility.yul\":3133:3213   */\n  tag_21\n  jump\t// in\ntag_65:\n    /* \"#utility.yul\":2792:3223   */\n  pop\n  pop\n    /* \"#utility.yul\":2777:3223   */\ntag_61:\n    /* \"#utility.yul\":2687:3230   */\n  pop\n  pop\n  pop\n  jump\t// out\n    /* \"#utility.yul\":3236:3353   */\ntag_23:\n    /* \"#utility.yul\":3290:3298   */\n  0x00\n    /* \"#utility.yul\":3340:3345   */\n  dup3\n    /* \"#utility.yul\":3334:3338   */\n  dup3\n    /* \"#utility.yul\":3330:3346   */\n  shr\n    /* \"#utility.yul\":3309:3346   */\n  swap1\n  pop\n    /* \"#utility.yul\":3236:3353   */\n  swap3\n  swap2\n  pop\n  pop\n  jump\t// out\n    /* \"#utility.yul\":3359:3528   */\ntag_24:\n    /* \"#utility.yul\":3403:3409   */\n  0x00\n    /* \"#utility.yul\":3436:3487   */\n  tag_69\n    /* \"#utility.yul\":3484:3485   */\n  0x00\n    /* \"#utility.yul\":3480:3486   */\n  not\n    /* \"#utility.yul\":3472:3477   */\n  dup5\n    /* \"#utility.yul\":3469:3470   */\n  0x08\n    /* \"#utility.yul\":3465:3478   */\n  mul\n    /* \"#utility.yul\":3436:3487   */\n  tag_23\n  jump\t// in\ntag_69:\n    /* \"#utility.yul\":3432:3488   */\n  not\n    /* \"#utility.yul\":3517:3521   */\n  dup1\n    /* \"#utility.yul\":3511:3515   */\n  dup4\n    /* \"#utility.yul\":3507:3522   */\n  and\n    /* \"#utility.yul\":3497:3522   */\n  swap2\n  pop\n    /* \"#utility.yul\":3410:3528   */\n  pop\n    /* \"#utility.yul\":3359:3528   */\n  swap3\n  swap2\n  pop\n  pop\n  jump\t// out\n    /* \"#utility.yul\":3533:3828   */\ntag_25:\n    /* \"#utility.yul\":3609:3613   */\n  0x00\n    /* \"#utility.yul\":3755:3784   */\n  tag_71\n    /* \"#utility.yul\":3780:3783   */\n  dup4\n    /* \"#utility.yul\":3774:3778   */\n  dup4\n    /* \"#utility.yul\":3755:3784   */\n  tag_24\n  jump\t// in\ntag_71:\n    /* \"#utility.yul\":3747:3784   */\n  swap2\n  pop\n    /* \"#utility.yul\":3817:3820   */\n  dup3\n    /* \"#utility.yul\":3814:3815   */\n  0x02\n    /* \"#utility.yul\":3810:3821   */\n  mul\n    /* \"#utility.yul\":3804:3808   */\n  dup3\n    /* \"#utility.yul\":3801:3822   */\n  or\n    /* \"#utility.yul\":3793:3822   */\n  swap1\n  pop\n    /* \"#utility.yul\":3533:3828   */\n  swap3\n  swap2\n  pop\n  pop\n  jump\t// out\n    /* \"#utility.yul\":3833:5228   */\ntag_2:\n    /* \"#utility.yul\":3950:3987   */\n  tag_73\n    /* \"#utility.yul\":3983:3986   */\n  dup3\n    /* \"#utility.yul\":3950:3987   */\n  tag_6\n  jump\t// in\ntag_73:\n    /* \"#utility.yul\":4052:4070   */\n  0xffffffffffffffff\n    /* \"#utility.yul\":4044:4050   */\n  dup2\n    /* \"#utility.yul\":4041:4071   */\n  gt\n    /* \"#utility.yul\":4038:4094   */\n  iszero\n  tag_74\n  jumpi\n    /* \"#utility.yul\":4074:4092   */\n  tag_75\n  tag_7\n  jump\t// in\ntag_75:\n    /* \"#utility.yul\":4038:4094   */\ntag_74:\n    /* \"#utility.yul\":4118:4156   */\n  tag_76\n    /* \"#utility.yul\":4150:4154   */\n  dup3\n    /* \"#utility.yul\":4144:4155   */\n  sload\n    /* \"#utility.yul\":4118:4156   */\n  tag_9\n  jump\t// in\ntag_76:\n    /* \"#utility.yul\":4203:4270   */\n  tag_77\n    /* \"#utility.yul\":4263:4269   */\n  dup3\n    /* \"#utility.yul\":4255:4261   */\n  dup3\n    /* \"#utility.yul\":4249:4253   */\n  dup6\n    /* \"#utility.yul\":4203:4270   */\n  tag_22\n  jump\t// in\ntag_77:\n    /* \"#utility.yul\":4297:4298   */\n  0x00\n    /* \"#utility.yul\":4321:4325   */\n  0x20\n    /* \"#utility.yul\":4308:4325   */\n  swap1\n  pop\n    /* \"#utility.yul\":4353:4355   */\n  0x1f\n    /* \"#utility.yul\":4345:4351   */\n  dup4\n    /* \"#utility.yul\":4342:4356   */\n  gt\n    /* \"#utility.yul\":4370:4371   */\n  0x01\n    /* \"#utility.yul\":4365:4983   */\n  dup2\n  eq\n  tag_79\n  jumpi\n    /* \"#utility.yul\":5027:5028   */\n  0x00\n    /* \"#utility.yul\":5044:5050   */\n  dup5\n    /* \"#utility.yul\":5041:5118   */\n  iszero\n  tag_80\n  jumpi\n    /* \"#utility.yul\":5093:5102   */\n  dup3\n    /* \"#utility.yul\":5088:5091   */\n  dup8\n    /* \"#utility.yul\":5084:5103   */\n  add\n    /* \"#utility.yul\":5078:5104   */\n  mload\n    /* \"#utility.yul\":5069:5104   */\n  swap1\n  pop\n    /* \"#utility.yul\":5041:5118   */\ntag_80:\n    /* \"#utility.yul\":5144:5211   */\n  tag_81\n    /* \"#utility.yul\":5204:5210   */\n  dup6\n    /* \"#utility.yul\":5197:5202   */\n  dup3\n    /* \"#utility.yul\":5144:5211   */\n  tag_25\n  jump\t// in\ntag_81:\n    /* \"#utility.yul\":5138:5142   */\n  dup7\n    /* \"#utility.yul\":5131:5212   */\n  sstore\n    /* \"#utility.yul\":5000:5222   */\n  pop\n    /* \"#utility.yul\":4335:5222   */\n  jump(tag_78)\n    /* \"#utility.yul\":4365:4983   */\ntag_79:\n    /* \"#utility.yul\":4417:4421   */\n  0x1f\n    /* \"#utility.yul\":4413:4422   */\n  not\n    /* \"#utility.yul\":4405:4411   */\n  dup5\n    /* \"#utility.yul\":4401:4423   */\n  and\n    /* \"#utility.yul\":4451:4488   */\n  tag_82\n    /* \"#utility.yul\":4483:4487   */\n  dup7\n    /* \"#utility.yul\":4451:4488   */\n  tag_10\n  jump\t// in\ntag_82:\n    /* \"#utility.yul\":4510:4511   */\n  0x00\n    /* \"#utility.yul\":4524:4732   */\ntag_83:\n    /* \"#utility.yul\":4538:4545   */\n  dup3\n    /* \"#utility.yul\":4535:4536   */\n  dup2\n    /* \"#utility.yul\":4532:4546   */\n  lt\n    /* \"#utility.yul\":4524:4732   */\n  iszero\n  tag_85\n  jumpi\n    /* \"#utility.yul\":4617:4626   */\n  dup5\n    /* \"#utility.yul\":4612:4615   */\n  dup10\n    /* \"#utility.yul\":4608:4627   */\n  add\n    /* \"#utility.yul\":4602:4628   */\n  mload\n    /* \"#utility.yul\":4594:4600   */\n  dup3\n    /* \"#utility.yul\":4587:4629   */\n  sstore\n    /* \"#utility.yul\":4668:4669   */\n  0x01\n    /* \"#utility.yul\":4660:4666   */\n  dup3\n    /* \"#utility.yul\":4656:4670   */\n  add\n    /* \"#utility.yul\":4646:4670   */\n  swap2\n  pop\n    /* \"#utility.yul\":4715:4717   */\n  0x20\n    /* \"#utility.yul\":4704:4713   */\n  dup6\n    /* \"#utility.yul\":4700:4718   */\n  add\n    /* \"#utility.yul\":4687:4718   */\n  swap5\n  pop\n    /* \"#utility.yul\":4561:4565   */\n  0x20\n    /* \"#utility.yul\":4558:4559   */\n  dup2\n    /* \"#utility.yul\":4554:4566   */\n  add\n    /* \"#utility.yul\":4549:4566   */\n  swap1\n  pop\n    /* \"#utility.yul\":4524:4732   */\n  jump(tag_83)\ntag_85:\n    /* \"#utility.yul\":4760:4766   */\n  dup7\n    /* \"#utility.yul\":4751:4758   */\n  dup4\n    /* \"#utility.yul\":4748:4767   */\n  lt\n    /* \"#utility.yul\":4745:4924   */\n  iszero\n  tag_86\n  jumpi\n    /* \"#utility.yul\":4818:4827   */\n  dup5\n    /* \"#utility.yul\":4813:4816   */\n  dup10\n    /* \"#utility.yul\":4809:4828   */\n  add\n    /* \"#utility.yul\":4803:4829   */\n  mload\n    /* \"#utility.yul\":4861:4909   */\n  tag_87\n    /* \"#utility.yul\":4903:4907   */\n  0x1f\n    /* \"#utility.yul\":4895:4901   */\n  dup10\n    /* \"#utility.yul\":4891:4908   */\n  and\n    /* \"#utility.yul\":4880:4889   */\n  dup3\n    /* \"#utility.yul\":4861:4909   */\n  tag_24\n  jump\t// in\ntag_87:\n    /* \"#utility.yul\":4853:4859   */\n  dup4\n    /* \"#utility.yul\":4846:4910   */\n  sstore\n    /* \"#utility.yul\":4768:4924   */\n  pop\n    /* \"#utility.yul\":4745:4924   */\ntag_86:\n    /* \"#utility.yul\":4970:4971   */\n  0x01\n    /* \"#utility.yul\":4966:4967   */\n  0x02\n    /* \"#utility.yul\":4958:4964   */\n  dup9\n    /* \"#utility.yul\":4954:4968   */\n  mul\n    /* \"#utility.yul\":4950:4972   */\n  add\n    /* \"#utility.yul\":4944:4948   */\n  dup9\n    /* \"#utility.yul\":4937:4973   */\n  sstore\n    /* \"#utility.yul\":4372:4983   */\n  pop\n  pop\n  pop\n    /* \"#utility.yul\":4335:5222   */\ntag_78:\n  pop\n    /* \"#utility.yul\":3925:5228   */\n  pop\n  pop\n  pop\n    /* \"#utility.yul\":3833:5228   */\n  pop\n  pop\n  jump\t// out\n    /* \"Joytoken/joytoken.sol\":57:696  contract JoyToken {... */\ntag_5:\n  dataSize(sub_0)\n  dup1\n  dataOffset(sub_0)\n  0x00\n  codecopy\n  0x00\n  return\nstop\n\nsub_0: assembly {\n        /* \"Joytoken/joytoken.sol\":57:696  contract JoyToken {... */\n      mstore(0x40, 0x80)\n      callvalue\n      dup1\n      iszero\n      tag_1\n      jumpi\n      0x00\n      dup1\n      revert\n    tag_1:\n      pop\n      jumpi(tag_2, lt(calldatasize, 0x04))\n      shr(0xe0, calldataload(0x00))\n      dup1\n      0x18160ddd\n      eq\n      tag_3\n      jumpi\n      dup1\n      0x27e235e3\n      eq\n      tag_4\n      jumpi\n      dup1\n      0x6c02a931\n      eq\n      tag_5\n      jumpi\n      dup1\n      0x79c65068\n      eq\n      tag_6\n      jumpi\n      dup1\n      0x7b61c320\n      eq\n      tag_7\n      jumpi\n      dup1\n      0xd1df306c\n      eq\n      tag_8\n      jumpi\n    tag_2:\n      0x00\n      dup1\n      revert\n        /* \"Joytoken/joytoken.sol\":163:189  uint256 public totalSupply */\n    tag_3:\n      tag_9\n      tag_10\n      jump\t// in\n    tag_9:\n      mload(0x40)\n      tag_11\n      swap2\n      swap1\n      tag_12\n      jump\t// in\n    tag_11:\n      mload(0x40)\n      dup1\n      swap2\n      sub\n      swap1\n      return\n        /* \"Joytoken/joytoken.sol\":195:238  mapping(address => uint256) public balances */\n    tag_4:\n      tag_13\n      0x04\n      dup1\n      calldatasize\n      sub\n      dup2\n      add\n      swap1\n      tag_14\n      swap2\n      swap1\n      tag_15\n      jump\t// in\n    tag_14:\n      tag_16\n      jump\t// in\n    tag_13:\n      mload(0x40)\n      tag_17\n      swap2\n      swap1\n      tag_12\n      jump\t// in\n    tag_17:\n      mload(0x40)\n      dup1\n      swap2\n      sub\n      swap1\n      return\n        /* \"Joytoken/joytoken.sol\":81:118  string public tokenName = \"Joy Token\" */\n    tag_5:\n      tag_18\n      tag_19\n      jump\t// in\n    tag_18:\n      mload(0x40)\n      tag_20\n      swap2\n      swap1\n      tag_21\n      jump\t// in\n    tag_20:\n      mload(0x40)\n      dup1\n      swap2\n      sub\n      swap1\n      return\n        /* \"Joytoken/joytoken.sol\":246:443  function mintToken(address _reciever, uint256 _value) external {... */\n    tag_6:\n      tag_22\n      0x04\n      dup1\n      calldatasize\n      sub\n      dup2\n      add\n      swap1\n      tag_23\n      swap2\n      swap1\n      tag_24\n      jump\t// in\n    tag_23:\n      tag_25\n      jump\t// in\n    tag_22:\n      stop\n        /* \"Joytoken/joytoken.sol\":124:157  string public tokenSymbol = \"Joy\" */\n    tag_7:\n      tag_26\n      tag_27\n      jump\t// in\n    tag_26:\n      mload(0x40)\n      tag_28\n      swap2\n      swap1\n      tag_21\n      jump\t// in\n    tag_28:\n      mload(0x40)\n      dup1\n      swap2\n      sub\n      swap1\n      return\n        /* \"Joytoken/joytoken.sol\":449:694  function  burnToken(address _from,  uint256 _value) external {... */\n    tag_8:\n      tag_29\n      0x04\n      dup1\n      calldatasize\n      sub\n      dup2\n      add\n      swap1\n      tag_30\n      swap2\n      swap1\n      tag_24\n      jump\t// in\n    tag_30:\n      tag_31\n      jump\t// in\n    tag_29:\n      stop\n        /* \"Joytoken/joytoken.sol\":163:189  uint256 public totalSupply */\n    tag_10:\n      sload(0x02)\n      dup2\n      jump\t// out\n        /* \"Joytoken/joytoken.sol\":195:238  mapping(address => uint256) public balances */\n    tag_16:\n      mstore(0x20, 0x03)\n      dup1\n      0x00\n      mstore\n      keccak256(0x00, 0x40)\n      0x00\n      swap2\n      pop\n      swap1\n      pop\n      sload\n      dup2\n      jump\t// out\n        /* \"Joytoken/joytoken.sol\":81:118  string public tokenName = \"Joy Token\" */\n    tag_19:\n      0x00\n      dup1\n      sload\n      tag_32\n      swap1\n      tag_33\n      jump\t// in\n    tag_32:\n      dup1\n      0x1f\n      add\n      0x20\n      dup1\n      swap2\n      div\n      mul\n      0x20\n      add\n      mload(0x40)\n      swap1\n      dup2\n      add\n      0x40\n      mstore\n      dup1\n      swap3\n      swap2\n      swap1\n      dup2\n      dup2\n      mstore\n      0x20\n      add\n      dup3\n      dup1\n      sload\n      tag_34\n      swap1\n      tag_33\n      jump\t// in\n    tag_34:\n      dup1\n      iszero\n      tag_35\n      jumpi\n      dup1\n      0x1f\n      lt\n      tag_36\n      jumpi\n      0x0100\n      dup1\n      dup4\n      sload\n      div\n      mul\n      dup4\n      mstore\n      swap2\n      0x20\n      add\n      swap2\n      jump(tag_35)\n    tag_36:\n      dup3\n      add\n      swap2\n      swap1\n      0x00\n      mstore\n      keccak256(0x00, 0x20)\n      swap1\n    tag_37:\n      dup2\n      sload\n      dup2\n      mstore\n      swap1\n      0x01\n      add\n      swap1\n      0x20\n      add\n      dup1\n      dup4\n      gt\n      tag_37\n      jumpi\n      dup3\n      swap1\n      sub\n      0x1f\n      and\n      dup3\n      add\n      swap2\n    tag_35:\n      pop\n      pop\n      pop\n      pop\n      pop\n      dup2\n      jump\t// out\n        /* \"Joytoken/joytoken.sol\":246:443  function mintToken(address _reciever, uint256 _value) external {... */\n    tag_25:\n        /* \"Joytoken/joytoken.sol\":337:338  0 */\n      0x00\n        /* \"Joytoken/joytoken.sol\":328:334  _value */\n      dup2\n        /* \"Joytoken/joytoken.sol\":328:338  _value > 0 */\n      gt\n        /* \"Joytoken/joytoken.sol\":320:363  require(_value > 0, \"Value is less than 0\") */\n      tag_39\n      jumpi\n      mload(0x40)\n      0x08c379a000000000000000000000000000000000000000000000000000000000\n      dup2\n      mstore\n      0x04\n      add\n      tag_40\n      swap1\n      tag_41\n      jump\t// in\n    tag_40:\n      mload(0x40)\n      dup1\n      swap2\n      sub\n      swap1\n      revert\n    tag_39:\n        /* \"Joytoken/joytoken.sol\":388:394  _value */\n      dup1\n        /* \"Joytoken/joytoken.sol\":373:384  totalSupply */\n      0x02\n      0x00\n        /* \"Joytoken/joytoken.sol\":373:394  totalSupply += _value */\n      dup3\n      dup3\n      sload\n      tag_42\n      swap2\n      swap1\n      tag_43\n      jump\t// in\n    tag_42:\n      swap3\n      pop\n      pop\n      dup2\n      swap1\n      sstore\n      pop\n        /* \"Joytoken/joytoken.sol\":430:436  _value */\n      dup1\n        /* \"Joytoken/joytoken.sol\":407:415  balances */\n      0x03\n        /* \"Joytoken/joytoken.sol\":407:426  balances[_reciever] */\n      0x00\n        /* \"Joytoken/joytoken.sol\":416:425  _reciever */\n      dup5\n        /* \"Joytoken/joytoken.sol\":407:426  balances[_reciever] */\n      0xffffffffffffffffffffffffffffffffffffffff\n      and\n      0xffffffffffffffffffffffffffffffffffffffff\n      and\n      dup2\n      mstore\n      0x20\n      add\n      swap1\n      dup2\n      mstore\n      0x20\n      add\n      0x00\n      keccak256\n      0x00\n        /* \"Joytoken/joytoken.sol\":407:436  balances[_reciever] += _value */\n      dup3\n      dup3\n      sload\n      tag_44\n      swap2\n      swap1\n      tag_43\n      jump\t// in\n    tag_44:\n      swap3\n      pop\n      pop\n      dup2\n      swap1\n      sstore\n      pop\n        /* \"Joytoken/joytoken.sol\":246:443  function mintToken(address _reciever, uint256 _value) external {... */\n      pop\n      pop\n      jump\t// out\n        /* \"Joytoken/joytoken.sol\":124:157  string public tokenSymbol = \"Joy\" */\n    tag_27:\n      0x01\n      dup1\n      sload\n      tag_45\n      swap1\n      tag_33\n      jump\t// in\n    tag_45:\n      dup1\n      0x1f\n      add\n      0x20\n      dup1\n      swap2\n      div\n      mul\n      0x20\n      add\n      mload(0x40)\n      swap1\n      dup2\n      add\n      0x40\n      mstore\n      dup1\n      swap3\n      swap2\n      swap1\n      dup2\n      dup2\n      mstore\n      0x20\n      add\n      dup3\n      dup1\n      sload\n      tag_46\n      swap1\n      tag_33\n      jump\t// in\n    tag_46:\n      dup1\n      iszero\n      tag_47\n      jumpi\n      dup1\n      0x1f\n      lt\n      tag_48\n      jumpi\n      0x0100\n      dup1\n      dup4\n      sload\n      div\n      mul\n      dup4\n      mstore\n      swap2\n      0x20\n      add\n      swap2\n      jump(tag_47)\n    tag_48:\n      dup3\n      add\n      swap2\n      swap1\n      0x00\n      mstore\n      keccak256(0x00, 0x20)\n      swap1\n    tag_49:\n      dup2\n      sload\n      dup2\n      mstore\n      swap1\n      0x01\n      add\n      swap1\n      0x20\n      add\n      dup1\n      dup4\n      gt\n      tag_49\n      jumpi\n      dup3\n      swap1\n      sub\n      0x1f\n      and\n      dup3\n      add\n      swap2\n    tag_47:\n      pop\n      pop\n      pop\n      pop\n      pop\n      dup2\n      jump\t// out\n        /* \"Joytoken/joytoken.sol\":449:694  function  burnToken(address _from,  uint256 _value) external {... */\n    tag_31:\n        /* \"Joytoken/joytoken.sol\":537:538  0 */\n      0x00\n        /* \"Joytoken/joytoken.sol\":528:534  _value */\n      dup2\n        /* \"Joytoken/joytoken.sol\":528:538  _value > 0 */\n      gt\n        /* \"Joytoken/joytoken.sol\":520:563  require(_value > 0, \"Value is less than 0\") */\n      tag_51\n      jumpi\n      mload(0x40)\n      0x08c379a000000000000000000000000000000000000000000000000000000000\n      dup2\n      mstore\n      0x04\n      add\n      tag_52\n      swap1\n      tag_41\n      jump\t// in\n    tag_52:\n      mload(0x40)\n      dup1\n      swap2\n      sub\n      swap1\n      revert\n    tag_51:\n        /* \"Joytoken/joytoken.sol\":601:607  _value */\n      dup1\n        /* \"Joytoken/joytoken.sol\":582:590  balances */\n      0x03\n        /* \"Joytoken/joytoken.sol\":582:597  balances[_from] */\n      0x00\n        /* \"Joytoken/joytoken.sol\":591:596  _from */\n      dup5\n        /* \"Joytoken/joytoken.sol\":582:597  balances[_from] */\n      0xffffffffffffffffffffffffffffffffffffffff\n      and\n      0xffffffffffffffffffffffffffffffffffffffff\n      and\n      dup2\n      mstore\n      0x20\n      add\n      swap1\n      dup2\n      mstore\n      0x20\n      add\n      0x00\n      keccak256\n      sload\n        /* \"Joytoken/joytoken.sol\":582:607  balances[_from] >= _value */\n      lt\n      iszero\n        /* \"Joytoken/joytoken.sol\":573:620  require( balances[_from] >= _value, \"low fund\") */\n      tag_53\n      jumpi\n      mload(0x40)\n      0x08c379a000000000000000000000000000000000000000000000000000000000\n      dup2\n      mstore\n      0x04\n      add\n      tag_54\n      swap1\n      tag_55\n      jump\t// in\n    tag_54:\n      mload(0x40)\n      dup1\n      swap2\n      sub\n      swap1\n      revert\n    tag_53:\n        /* \"Joytoken/joytoken.sol\":645:651  _value */\n      dup1\n        /* \"Joytoken/joytoken.sol\":630:641  totalSupply */\n      0x02\n      0x00\n        /* \"Joytoken/joytoken.sol\":630:651  totalSupply -= _value */\n      dup3\n      dup3\n      sload\n      tag_56\n      swap2\n      swap1\n      tag_57\n      jump\t// in\n    tag_56:\n      swap3\n      pop\n      pop\n      dup2\n      swap1\n      sstore\n      pop\n        /* \"Joytoken/joytoken.sol\":681:687  _value */\n      dup1\n        /* \"Joytoken/joytoken.sol\":662:670  balances */\n      0x03\n        /* \"Joytoken/joytoken.sol\":662:677  balances[_from] */\n      0x00\n        /* \"Joytoken/joytoken.sol\":671:676  _from */\n      dup5\n        /* \"Joytoken/joytoken.sol\":662:677  balances[_from] */\n      0xffffffffffffffffffffffffffffffffffffffff\n      and\n      0xffffffffffffffffffffffffffffffffffffffff\n      and\n      dup2\n      mstore\n      0x20\n      add\n      swap1\n      dup2\n      mstore\n      0x20\n      add\n      0x00\n      keccak256\n      0x00\n        /* \"Joytoken/joytoken.sol\":662:687  balances[_from] -= _value */\n      dup3\n      dup3\n      sload\n      tag_58\n      swap2\n      swap1\n      tag_57\n      jump\t// in\n    tag_58:\n      swap3\n      pop\n      pop\n      dup2\n      swap1\n      sstore\n      pop\n        /* \"Joytoken/joytoken.sol\":449:694  function  burnToken(address _from,  uint256 _value) external {... */\n      pop\n      pop\n      jump\t// out\n        /* \"#utility.yul\":7:84   */\n    tag_59:\n        /* \"#utility.yul\":44:51   */\n      0x00\n        /* \"#utility.yul\":73:78   */\n      dup2\n        /* \"#utility.yul\":62:78   */\n      swap1\n      pop\n        /* \"#utility.yul\":7:84   */\n      swap2\n      swap1\n      pop\n      jump\t// out\n        /* \"#utility.yul\":90:208   */\n    tag_60:\n        /* \"#utility.yul\":177:201   */\n      tag_84\n        /* \"#utility.yul\":195:200   */\n      dup2\n        /* \"#utility.yul\":177:201   */\n      tag_59\n      jump\t// in\n    tag_84:\n        /* \"#utility.yul\":172:175   */\n      dup3\n        /* \"#utility.yul\":165:202   */\n      mstore\n        /* \"#utility.yul\":90:208   */\n      pop\n      pop\n      jump\t// out\n        /* \"#utility.yul\":214:436   */\n    tag_12:\n        /* \"#utility.yul\":307:311   */\n      0x00\n        /* \"#utility.yul\":345:347   */\n      0x20\n        /* \"#utility.yul\":334:343   */\n      dup3\n        /* \"#utility.yul\":330:348   */\n      add\n        /* \"#utility.yul\":322:348   */\n      swap1\n      pop\n        /* \"#utility.yul\":358:429   */\n      tag_86\n        /* \"#utility.yul\":426:427   */\n      0x00\n        /* \"#utility.yul\":415:424   */\n      dup4\n        /* \"#utility.yul\":411:428   */\n      add\n        /* \"#utility.yul\":402:408   */\n      dup5\n        /* \"#utility.yul\":358:429   */\n      tag_60\n      jump\t// in\n    tag_86:\n        /* \"#utility.yul\":214:436   */\n      swap3\n      swap2\n      pop\n      pop\n      jump\t// out\n        /* \"#utility.yul\":523:640   */\n    tag_62:\n        /* \"#utility.yul\":632:633   */\n      0x00\n        /* \"#utility.yul\":629:630   */\n      dup1\n        /* \"#utility.yul\":622:634   */\n      revert\n        /* \"#utility.yul\":769:895   */\n    tag_64:\n        /* \"#utility.yul\":806:813   */\n      0x00\n        /* \"#utility.yul\":846:888   */\n      0xffffffffffffffffffffffffffffffffffffffff\n        /* \"#utility.yul\":839:844   */\n      dup3\n        /* \"#utility.yul\":835:889   */\n      and\n        /* \"#utility.yul\":824:889   */\n      swap1\n      pop\n        /* \"#utility.yul\":769:895   */\n      swap2\n      swap1\n      pop\n      jump\t// out\n        /* \"#utility.yul\":901:997   */\n    tag_65:\n        /* \"#utility.yul\":938:945   */\n      0x00\n        /* \"#utility.yul\":967:991   */\n      tag_92\n        /* \"#utility.yul\":985:990   */\n      dup3\n        /* \"#utility.yul\":967:991   */\n      tag_64\n      jump\t// in\n    tag_92:\n        /* \"#utility.yul\":956:991   */\n      swap1\n      pop\n        /* \"#utility.yul\":901:997   */\n      swap2\n      swap1\n      pop\n      jump\t// out\n        /* \"#utility.yul\":1003:1125   */\n    tag_66:\n        /* \"#utility.yul\":1076:1100   */\n      tag_94\n        /* \"#utility.yul\":1094:1099   */\n      dup2\n        /* \"#utility.yul\":1076:1100   */\n      tag_65\n      jump\t// in\n    tag_94:\n        /* \"#utility.yul\":1069:1074   */\n      dup2\n        /* \"#utility.yul\":1066:1101   */\n      eq\n        /* \"#utility.yul\":1056:1119   */\n      tag_95\n      jumpi\n        /* \"#utility.yul\":1115:1116   */\n      0x00\n        /* \"#utility.yul\":1112:1113   */\n      dup1\n        /* \"#utility.yul\":1105:1117   */\n      revert\n        /* \"#utility.yul\":1056:1119   */\n    tag_95:\n        /* \"#utility.yul\":1003:1125   */\n      pop\n      jump\t// out\n        /* \"#utility.yul\":1131:1270   */\n    tag_67:\n        /* \"#utility.yul\":1177:1182   */\n      0x00\n        /* \"#utility.yul\":1215:1221   */\n      dup2\n        /* \"#utility.yul\":1202:1222   */\n      calldataload\n        /* \"#utility.yul\":1193:1222   */\n      swap1\n      pop\n        /* \"#utility.yul\":1231:1264   */\n      tag_97\n        /* \"#utility.yul\":1258:1263   */\n      dup2\n        /* \"#utility.yul\":1231:1264   */\n      tag_66\n      jump\t// in\n    tag_97:\n        /* \"#utility.yul\":1131:1270   */\n      swap3\n      swap2\n      pop\n      pop\n      jump\t// out\n        /* \"#utility.yul\":1276:1605   */\n    tag_15:\n        /* \"#utility.yul\":1335:1341   */\n      0x00\n        /* \"#utility.yul\":1384:1386   */\n      0x20\n        /* \"#utility.yul\":1372:1381   */\n      dup3\n        /* \"#utility.yul\":1363:1370   */\n      dup5\n        /* \"#utility.yul\":1359:1382   */\n      sub\n        /* \"#utility.yul\":1355:1387   */\n      slt\n        /* \"#utility.yul\":1352:1471   */\n      iszero\n      tag_99\n      jumpi\n        /* \"#utility.yul\":1390:1469   */\n      tag_100\n      tag_62\n      jump\t// in\n    tag_100:\n        /* \"#utility.yul\":1352:1471   */\n    tag_99:\n        /* \"#utility.yul\":1510:1511   */\n      0x00\n        /* \"#utility.yul\":1535:1588   */\n      tag_101\n        /* \"#utility.yul\":1580:1587   */\n      dup5\n        /* \"#utility.yul\":1571:1577   */\n      dup3\n        /* \"#utility.yul\":1560:1569   */\n      dup6\n        /* \"#utility.yul\":1556:1578   */\n      add\n        /* \"#utility.yul\":1535:1588   */\n      tag_67\n      jump\t// in\n    tag_101:\n        /* \"#utility.yul\":1525:1588   */\n      swap2\n      pop\n        /* \"#utility.yul\":1481:1598   */\n      pop\n        /* \"#utility.yul\":1276:1605   */\n      swap3\n      swap2\n      pop\n      pop\n      jump\t// out\n        /* \"#utility.yul\":1611:1710   */\n    tag_68:\n        /* \"#utility.yul\":1663:1669   */\n      0x00\n        /* \"#utility.yul\":1697:1702   */\n      dup2\n        /* \"#utility.yul\":1691:1703   */\n      mload\n        /* \"#utility.yul\":1681:1703   */\n      swap1\n      pop\n        /* \"#utility.yul\":1611:1710   */\n      swap2\n      swap1\n      pop\n      jump\t// out\n        /* \"#utility.yul\":1716:1885   */\n    tag_69:\n        /* \"#utility.yul\":1800:1811   */\n      0x00\n        /* \"#utility.yul\":1834:1840   */\n      dup3\n        /* \"#utility.yul\":1829:1832   */\n      dup3\n        /* \"#utility.yul\":1822:1841   */\n      mstore\n        /* \"#utility.yul\":1874:1878   */\n      0x20\n        /* \"#utility.yul\":1869:1872   */\n      dup3\n        /* \"#utility.yul\":1865:1879   */\n      add\n        /* \"#utility.yul\":1850:1879   */\n      swap1\n      pop\n        /* \"#utility.yul\":1716:1885   */\n      swap3\n      swap2\n      pop\n      pop\n      jump\t// out\n        /* \"#utility.yul\":1891:2137   */\n    tag_70:\n        /* \"#utility.yul\":1972:1973   */\n      0x00\n        /* \"#utility.yul\":1982:2095   */\n    tag_105:\n        /* \"#utility.yul\":1996:2002   */\n      dup4\n        /* \"#utility.yul\":1993:1994   */\n      dup2\n        /* \"#utility.yul\":1990:2003   */\n      lt\n        /* \"#utility.yul\":1982:2095   */\n      iszero\n      tag_107\n      jumpi\n        /* \"#utility.yul\":2081:2082   */\n      dup1\n        /* \"#utility.yul\":2076:2079   */\n      dup3\n        /* \"#utility.yul\":2072:2083   */\n      add\n        /* \"#utility.yul\":2066:2084   */\n      mload\n        /* \"#utility.yul\":2062:2063   */\n      dup2\n        /* \"#utility.yul\":2057:2060   */\n      dup5\n        /* \"#utility.yul\":2053:2064   */\n      add\n        /* \"#utility.yul\":2046:2085   */\n      mstore\n        /* \"#utility.yul\":2018:2020   */\n      0x20\n        /* \"#utility.yul\":2015:2016   */\n      dup2\n        /* \"#utility.yul\":2011:2021   */\n      add\n        /* \"#utility.yul\":2006:2021   */\n      swap1\n      pop\n        /* \"#utility.yul\":1982:2095   */\n      jump(tag_105)\n    tag_107:\n        /* \"#utility.yul\":2129:2130   */\n      0x00\n        /* \"#utility.yul\":2120:2126   */\n      dup5\n        /* \"#utility.yul\":2115:2118   */\n      dup5\n        /* \"#utility.yul\":2111:2127   */\n      add\n        /* \"#utility.yul\":2104:2131   */\n      mstore\n        /* \"#utility.yul\":1953:2137   */\n      pop\n        /* \"#utility.yul\":1891:2137   */\n      pop\n      pop\n      pop\n      jump\t// out\n        /* \"#utility.yul\":2143:2245   */\n    tag_71:\n        /* \"#utility.yul\":2184:2190   */\n      0x00\n        /* \"#utility.yul\":2235:2237   */\n      0x1f\n        /* \"#utility.yul\":2231:2238   */\n      not\n        /* \"#utility.yul\":2226:2228   */\n      0x1f\n        /* \"#utility.yul\":2219:2224   */\n      dup4\n        /* \"#utility.yul\":2215:2229   */\n      add\n        /* \"#utility.yul\":2211:2239   */\n      and\n        /* \"#utility.yul\":2201:2239   */\n      swap1\n      pop\n        /* \"#utility.yul\":2143:2245   */\n      swap2\n      swap1\n      pop\n      jump\t// out\n        /* \"#utility.yul\":2251:2628   */\n    tag_72:\n        /* \"#utility.yul\":2339:2342   */\n      0x00\n        /* \"#utility.yul\":2367:2406   */\n      tag_110\n        /* \"#utility.yul\":2400:2405   */\n      dup3\n        /* \"#utility.yul\":2367:2406   */\n      tag_68\n      jump\t// in\n    tag_110:\n        /* \"#utility.yul\":2422:2493   */\n      tag_111\n        /* \"#utility.yul\":2486:2492   */\n      dup2\n        /* \"#utility.yul\":2481:2484   */\n      dup6\n        /* \"#utility.yul\":2422:2493   */\n      tag_69\n      jump\t// in\n    tag_111:\n        /* \"#utility.yul\":2415:2493   */\n      swap4\n      pop\n        /* \"#utility.yul\":2502:2567   */\n      tag_112\n        /* \"#utility.yul\":2560:2566   */\n      dup2\n        /* \"#utility.yul\":2555:2558   */\n      dup6\n        /* \"#utility.yul\":2548:2552   */\n      0x20\n        /* \"#utility.yul\":2541:2546   */\n      dup7\n        /* \"#utility.yul\":2537:2553   */\n      add\n        /* \"#utility.yul\":2502:2567   */\n      tag_70\n      jump\t// in\n    tag_112:\n        /* \"#utility.yul\":2592:2621   */\n      tag_113\n        /* \"#utility.yul\":2614:2620   */\n      dup2\n        /* \"#utility.yul\":2592:2621   */\n      tag_71\n      jump\t// in\n    tag_113:\n        /* \"#utility.yul\":2587:2590   */\n      dup5\n        /* \"#utility.yul\":2583:2622   */\n      add\n        /* \"#utility.yul\":2576:2622   */\n      swap2\n      pop\n        /* \"#utility.yul\":2343:2628   */\n      pop\n        /* \"#utility.yul\":2251:2628   */\n      swap3\n      swap2\n      pop\n      pop\n      jump\t// out\n        /* \"#utility.yul\":2634:2947   */\n    tag_21:\n        /* \"#utility.yul\":2747:2751   */\n      0x00\n        /* \"#utility.yul\":2785:2787   */\n      0x20\n        /* \"#utility.yul\":2774:2783   */\n      dup3\n        /* \"#utility.yul\":2770:2788   */\n      add\n        /* \"#utility.yul\":2762:2788   */\n      swap1\n      pop\n        /* \"#utility.yul\":2834:2843   */\n      dup2\n        /* \"#utility.yul\":2828:2832   */\n      dup2\n        /* \"#utility.yul\":2824:2844   */\n      sub\n        /* \"#utility.yul\":2820:2821   */\n      0x00\n        /* \"#utility.yul\":2809:2818   */\n      dup4\n        /* \"#utility.yul\":2805:2822   */\n      add\n        /* \"#utility.yul\":2798:2845   */\n      mstore\n        /* \"#utility.yul\":2862:2940   */\n      tag_115\n        /* \"#utility.yul\":2935:2939   */\n      dup2\n        /* \"#utility.yul\":2926:2932   */\n      dup5\n        /* \"#utility.yul\":2862:2940   */\n      tag_72\n      jump\t// in\n    tag_115:\n        /* \"#utility.yul\":2854:2940   */\n      swap1\n      pop\n        /* \"#utility.yul\":2634:2947   */\n      swap3\n      swap2\n      pop\n      pop\n      jump\t// out\n        /* \"#utility.yul\":2953:3075   */\n    tag_73:\n        /* \"#utility.yul\":3026:3050   */\n      tag_117\n        /* \"#utility.yul\":3044:3049   */\n      dup2\n        /* \"#utility.yul\":3026:3050   */\n      tag_59\n      jump\t// in\n    tag_117:\n        /* \"#utility.yul\":3019:3024   */\n      dup2\n        /* \"#utility.yul\":3016:3051   */\n      eq\n        /* \"#utility.yul\":3006:3069   */\n      tag_118\n      jumpi\n        /* \"#utility.yul\":3065:3066   */\n      0x00\n        /* \"#utility.yul\":3062:3063   */\n      dup1\n        /* \"#utility.yul\":3055:3067   */\n      revert\n        /* \"#utility.yul\":3006:3069   */\n    tag_118:\n        /* \"#utility.yul\":2953:3075   */\n      pop\n      jump\t// out\n        /* \"#utility.yul\":3081:3220   */\n    tag_74:\n        /* \"#utility.yul\":3127:3132   */\n      0x00\n        /* \"#utility.yul\":3165:3171   */\n      dup2\n        /* \"#utility.yul\":3152:3172   */\n      calldataload\n        /* \"#utility.yul\":3143:3172   */\n      swap1\n      pop\n        /* \"#utility.yul\":3181:3214   */\n      tag_120\n        /* \"#utility.yul\":3208:3213   */\n      dup2\n        /* \"#utility.yul\":3181:3214   */\n      tag_73\n      jump\t// in\n    tag_120:\n        /* \"#utility.yul\":3081:3220   */\n      swap3\n      swap2\n      pop\n      pop\n      jump\t// out\n        /* \"#utility.yul\":3226:3700   */\n    tag_24:\n        /* \"#utility.yul\":3294:3300   */\n      0x00\n        /* \"#utility.yul\":3302:3308   */\n      dup1\n        /* \"#utility.yul\":3351:3353   */\n      0x40\n        /* \"#utility.yul\":3339:3348   */\n      dup4\n        /* \"#utility.yul\":3330:3337   */\n      dup6\n        /* \"#utility.yul\":3326:3349   */\n      sub\n        /* \"#utility.yul\":3322:3354   */\n      slt\n        /* \"#utility.yul\":3319:3438   */\n      iszero\n      tag_122\n      jumpi\n        /* \"#utility.yul\":3357:3436   */\n      tag_123\n      tag_62\n      jump\t// in\n    tag_123:\n        /* \"#utility.yul\":3319:3438   */\n    tag_122:\n        /* \"#utility.yul\":3477:3478   */\n      0x00\n        /* \"#utility.yul\":3502:3555   */\n      tag_124\n        /* \"#utility.yul\":3547:3554   */\n      dup6\n        /* \"#utility.yul\":3538:3544   */\n      dup3\n        /* \"#utility.yul\":3527:3536   */\n      dup7\n        /* \"#utility.yul\":3523:3545   */\n      add\n        /* \"#utility.yul\":3502:3555   */\n      tag_67\n      jump\t// in\n    tag_124:\n        /* \"#utility.yul\":3492:3555   */\n      swap3\n      pop\n        /* \"#utility.yul\":3448:3565   */\n      pop\n        /* \"#utility.yul\":3604:3606   */\n      0x20\n        /* \"#utility.yul\":3630:3683   */\n      tag_125\n        /* \"#utility.yul\":3675:3682   */\n      dup6\n        /* \"#utility.yul\":3666:3672   */\n      dup3\n        /* \"#utility.yul\":3655:3664   */\n      dup7\n        /* \"#utility.yul\":3651:3673   */\n      add\n        /* \"#utility.yul\":3630:3683   */\n      tag_74\n      jump\t// in\n    tag_125:\n        /* \"#utility.yul\":3620:3683   */\n      swap2\n      pop\n        /* \"#utility.yul\":3575:3693   */\n      pop\n        /* \"#utility.yul\":3226:3700   */\n      swap3\n      pop\n      swap3\n      swap1\n      pop\n      jump\t// out\n        /* \"#utility.yul\":3706:3886   */\n    tag_75:\n        /* \"#utility.yul\":3754:3831   */\n      0x4e487b7100000000000000000000000000000000000000000000000000000000\n        /* \"#utility.yul\":3751:3752   */\n      0x00\n        /* \"#utility.yul\":3744:3832   */\n      mstore\n        /* \"#utility.yul\":3851:3855   */\n      0x22\n        /* \"#utility.yul\":3848:3849   */\n      0x04\n        /* \"#utility.yul\":3841:3856   */\n      mstore\n        /* \"#utility.yul\":3875:3879   */\n      0x24\n        /* \"#utility.yul\":3872:3873   */\n      0x00\n        /* \"#utility.yul\":3865:3880   */\n      revert\n        /* \"#utility.yul\":3892:4212   */\n    tag_33:\n        /* \"#utility.yul\":3936:3942   */\n      0x00\n        /* \"#utility.yul\":3973:3974   */\n      0x02\n        /* \"#utility.yul\":3967:3971   */\n      dup3\n        /* \"#utility.yul\":3963:3975   */\n      div\n        /* \"#utility.yul\":3953:3975   */\n      swap1\n      pop\n        /* \"#utility.yul\":4020:4021   */\n      0x01\n        /* \"#utility.yul\":4014:4018   */\n      dup3\n        /* \"#utility.yul\":4010:4022   */\n      and\n        /* \"#utility.yul\":4041:4059   */\n      dup1\n        /* \"#utility.yul\":4031:4112   */\n      tag_128\n      jumpi\n        /* \"#utility.yul\":4097:4101   */\n      0x7f\n        /* \"#utility.yul\":4089:4095   */\n      dup3\n        /* \"#utility.yul\":4085:4102   */\n      and\n        /* \"#utility.yul\":4075:4102   */\n      swap2\n      pop\n        /* \"#utility.yul\":4031:4112   */\n    tag_128:\n        /* \"#utility.yul\":4159:4161   */\n      0x20\n        /* \"#utility.yul\":4151:4157   */\n      dup3\n        /* \"#utility.yul\":4148:4162   */\n      lt\n        /* \"#utility.yul\":4128:4146   */\n      dup2\n        /* \"#utility.yul\":4125:4163   */\n      sub\n        /* \"#utility.yul\":4122:4206   */\n      tag_129\n      jumpi\n        /* \"#utility.yul\":4178:4196   */\n      tag_130\n      tag_75\n      jump\t// in\n    tag_130:\n        /* \"#utility.yul\":4122:4206   */\n    tag_129:\n        /* \"#utility.yul\":3943:4212   */\n      pop\n        /* \"#utility.yul\":3892:4212   */\n      swap2\n      swap1\n      pop\n      jump\t// out\n        /* \"#utility.yul\":4218:4388   */\n    tag_76:\n        /* \"#utility.yul\":4358:4380   */\n      0x56616c7565206973206c657373207468616e2030000000000000000000000000\n        /* \"#utility.yul\":4354:4355   */\n      0x00\n        /* \"#utility.yul\":4346:4352   */\n      dup3\n        /* \"#utility.yul\":4342:4356   */\n      add\n        /* \"#utility.yul\":4335:4381   */\n      mstore\n        /* \"#utility.yul\":4218:4388   */\n      pop\n      jump\t// out\n        /* \"#utility.yul\":4394:4760   */\n    tag_77:\n        /* \"#utility.yul\":4536:4539   */\n      0x00\n        /* \"#utility.yul\":4557:4624   */\n      tag_133\n        /* \"#utility.yul\":4621:4623   */\n      0x14\n        /* \"#utility.yul\":4616:4619   */\n      dup4\n        /* \"#utility.yul\":4557:4624   */\n      tag_69\n      jump\t// in\n    tag_133:\n        /* \"#utility.yul\":4550:4624   */\n      swap2\n      pop\n        /* \"#utility.yul\":4633:4726   */\n      tag_134\n        /* \"#utility.yul\":4722:4725   */\n      dup3\n        /* \"#utility.yul\":4633:4726   */\n      tag_76\n      jump\t// in\n    tag_134:\n        /* \"#utility.yul\":4751:4753   */\n      0x20\n        /* \"#utility.yul\":4746:4749   */\n      dup3\n        /* \"#utility.yul\":4742:4754   */\n      add\n        /* \"#utility.yul\":4735:4754   */\n      swap1\n      pop\n        /* \"#utility.yul\":4394:4760   */\n      swap2\n      swap1\n      pop\n      jump\t// out\n        /* \"#utility.yul\":4766:5185   */\n    tag_41:\n        /* \"#utility.yul\":4932:4936   */\n      0x00\n        /* \"#utility.yul\":4970:4972   */\n      0x20\n        /* \"#utility.yul\":4959:4968   */\n      dup3\n        /* \"#utility.yul\":4955:4973   */\n      add\n        /* \"#utility.yul\":4947:4973   */\n      swap1\n      pop\n        /* \"#utility.yul\":5019:5028   */\n      dup2\n        /* \"#utility.yul\":5013:5017   */\n      dup2\n        /* \"#utility.yul\":5009:5029   */\n      sub\n        /* \"#utility.yul\":5005:5006   */\n      0x00\n        /* \"#utility.yul\":4994:5003   */\n      dup4\n        /* \"#utility.yul\":4990:5007   */\n      add\n        /* \"#utility.yul\":4983:5030   */\n      mstore\n        /* \"#utility.yul\":5047:5178   */\n      tag_136\n        /* \"#utility.yul\":5173:5177   */\n      dup2\n        /* \"#utility.yul\":5047:5178   */\n      tag_77\n      jump\t// in\n    tag_136:\n        /* \"#utility.yul\":5039:5178   */\n      swap1\n      pop\n        /* \"#utility.yul\":4766:5185   */\n      swap2\n      swap1\n      pop\n      jump\t// out\n        /* \"#utility.yul\":5191:5371   */\n    tag_78:\n        /* \"#utility.yul\":5239:5316   */\n      0x4e487b7100000000000000000000000000000000000000000000000000000000\n        /* \"#utility.yul\":5236:5237   */\n      0x00\n        /* \"#utility.yul\":5229:5317   */\n      mstore\n        /* \"#utility.yul\":5336:5340   */\n      0x11\n        /* \"#utility.yul\":5333:5334   */\n      0x04\n        /* \"#utility.yul\":5326:5341   */\n      mstore\n        /* \"#utility.yul\":5360:5364   */\n      0x24\n        /* \"#utility.yul\":5357:5358   */\n      0x00\n        /* \"#utility.yul\":5350:5365   */\n      revert\n        /* \"#utility.yul\":5377:5568   */\n    tag_43:\n        /* \"#utility.yul\":5417:5420   */\n      0x00\n        /* \"#utility.yul\":5436:5456   */\n      tag_139\n        /* \"#utility.yul\":5454:5455   */\n      dup3\n        /* \"#utility.yul\":5436:5456   */\n      tag_59\n      jump\t// in\n    tag_139:\n        /* \"#utility.yul\":5431:5456   */\n      swap2\n      pop\n        /* \"#utility.yul\":5470:5490   */\n      tag_140\n        /* \"#utility.yul\":5488:5489   */\n      dup4\n        /* \"#utility.yul\":5470:5490   */\n      tag_59\n      jump\t// in\n    tag_140:\n        /* \"#utility.yul\":5465:5490   */\n      swap3\n      pop\n        /* \"#utility.yul\":5513:5514   */\n      dup3\n        /* \"#utility.yul\":5510:5511   */\n      dup3\n        /* \"#utility.yul\":5506:5515   */\n      add\n        /* \"#utility.yul\":5499:5515   */\n      swap1\n      pop\n        /* \"#utility.yul\":5534:5537   */\n      dup1\n        /* \"#utility.yul\":5531:5532   */\n      dup3\n        /* \"#utility.yul\":5528:5538   */\n      gt\n        /* \"#utility.yul\":5525:5561   */\n      iszero\n      tag_141\n      jumpi\n        /* \"#utility.yul\":5541:5559   */\n      tag_142\n      tag_78\n      jump\t// in\n    tag_142:\n        /* \"#utility.yul\":5525:5561   */\n    tag_141:\n        /* \"#utility.yul\":5377:5568   */\n      swap3\n      swap2\n      pop\n      pop\n      jump\t// out\n        /* \"#utility.yul\":5574:5732   */\n    tag_79:\n        /* \"#utility.yul\":5714:5724   */\n      0x6c6f772066756e64000000000000000000000000000000000000000000000000\n        /* \"#utility.yul\":5710:5711   */\n      0x00\n        /* \"#utility.yul\":5702:5708   */\n      dup3\n        /* \"#utility.yul\":5698:5712   */\n      add\n        /* \"#utility.yul\":5691:5725   */\n      mstore\n        /* \"#utility.yul\":5574:5732   */\n      pop\n      jump\t// out\n        /* \"#utility.yul\":5738:6103   */\n    tag_80:\n        /* \"#utility.yul\":5880:5883   */\n      0x00\n        /* \"#utility.yul\":5901:5967   */\n      tag_145\n        /* \"#utility.yul\":5965:5966   */\n      0x08\n        /* \"#utility.yul\":5960:5963   */\n      dup4\n        /* \"#utility.yul\":5901:5967   */\n      tag_69\n      jump\t// in\n    tag_145:\n        /* \"#utility.yul\":5894:5967   */\n      swap2\n      pop\n        /* \"#utility.yul\":5976:6069   */\n      tag_146\n        /* \"#utility.yul\":6065:6068   */\n      dup3\n        /* \"#utility.yul\":5976:6069   */\n      tag_79\n      jump\t// in\n    tag_146:\n        /* \"#utility.yul\":6094:6096   */\n      0x20\n        /* \"#utility.yul\":6089:6092   */\n      dup3\n        /* \"#utility.yul\":6085:6097   */\n      add\n        /* \"#utility.yul\":6078:6097   */\n      swap1\n      pop\n        /* \"#utility.yul\":5738:6103   */\n      swap2\n      swap1\n      pop\n      jump\t// out\n        /* \"#utility.yul\":6109:6528   */\n    tag_55:\n        /* \"#utility.yul\":6275:6279   */\n      0x00\n        /* \"#utility.yul\":6313:6315   */\n      0x20\n        /* \"#utility.yul\":6302:6311   */\n      dup3\n        /* \"#utility.yul\":6298:6316   */\n      add\n        /* \"#utility.yul\":6290:6316   */\n      swap1\n      pop\n        /* \"#utility.yul\":6362:6371   */\n      dup2\n        /* \"#utility.yul\":6356:6360   */\n      dup2\n        /* \"#utility.yul\":6352:6372   */\n      sub\n        /* \"#utility.yul\":6348:6349   */\n      0x00\n        /* \"#utility.yul\":6337:6346   */\n      dup4\n        /* \"#utility.yul\":6333:6350   */\n      add\n        /* \"#utility.yul\":6326:6373   */\n      mstore\n        /* \"#utility.yul\":6390:6521   */\n      tag_148\n        /* \"#utility.yul\":6516:6520   */\n      dup2\n        /* \"#utility.yul\":6390:6521   */\n      tag_80\n      jump\t// in\n    tag_148:\n        /* \"#utility.yul\":6382:6521   */\n      swap1\n      pop\n        /* \"#utility.yul\":6109:6528   */\n      swap2\n      swap1\n      pop\n      jump\t// out\n        /* \"#utility.yul\":6534:6728   */\n    tag_57:\n        /* \"#utility.yul\":6574:6578   */\n      0x00\n        /* \"#utility.yul\":6594:6614   */\n      tag_150\n        /* \"#utility.yul\":6612:6613   */\n      dup3\n        /* \"#utility.yul\":6594:6614   */\n      tag_59\n      jump\t// in\n    tag_150:\n        /* \"#utility.yul\":6589:6614   */\n      swap2\n      pop\n        /* \"#utility.yul\":6628:6648   */\n      tag_151\n        /* \"#utility.yul\":6646:6647   */\n      dup4\n        /* \"#utility.yul\":6628:6648   */\n      tag_59\n      jump\t// in\n    tag_151:\n        /* \"#utility.yul\":6623:6648   */\n      swap3\n      pop\n        /* \"#utility.yul\":6672:6673   */\n      dup3\n        /* \"#utility.yul\":6669:6670   */\n      dup3\n        /* \"#utility.yul\":6665:6674   */\n      sub\n        /* \"#utility.yul\":6657:6674   */\n      swap1\n      pop\n        /* \"#utility.yul\":6696:6697   */\n      dup2\n        /* \"#utility.yul\":6690:6694   */\n      dup2\n        /* \"#utility.yul\":6687:6698   */\n      gt\n        /* \"#utility.yul\":6684:6721   */\n      iszero\n      tag_152\n      jumpi\n        /* \"#utility.yul\":6701:6719   */\n      tag_153\n      tag_78\n      jump\t// in\n    tag_153:\n        /* \"#utility.yul\":6684:6721   */\n    tag_152:\n        /* \"#utility.yul\":6534:6728   */\n      swap3\n      swap2\n      pop\n      pop\n      jump\t// out\n\n    auxdata: 0xa264697066735822122087f72c5579f0c538a25b4da8947d56973d1cd2843be28413c0955f5039e270bf64736f6c63430008120033\n}\n",
				"bytecode": {
					"linkReferences": {},
					"object": "60806040526040518060400160405280600981526020017f4a6f7920546f6b656e0000000000000000000000000000000000000000000000815250600090816200004a919062000320565b506040518060400160405280600381526020017f4a6f7900000000000000000000000000000000000000000000000000000000008152506001908162000091919062000320565b503480156200009f57600080fd5b5062000407565b600081519050919050565b7f4e487b7100000000000000000000000000000000000000000000000000000000600052604160045260246000fd5b7f4e487b7100000000000000000000000000000000000000000000000000000000600052602260045260246000fd5b600060028204905060018216806200012857607f821691505b6020821081036200013e576200013d620000e0565b5b50919050565b60008190508160005260206000209050919050565b60006020601f8301049050919050565b600082821b905092915050565b600060088302620001a87fffffffffffffffffffffffffffffffffffffffffffffffffffffffffffffffff8262000169565b620001b4868362000169565b95508019841693508086168417925050509392505050565b6000819050919050565b6000819050919050565b600062000201620001fb620001f584620001cc565b620001d6565b620001cc565b9050919050565b6000819050919050565b6200021d83620001e0565b620002356200022c8262000208565b84845462000176565b825550505050565b600090565b6200024c6200023d565b6200025981848462000212565b505050565b5b8181101562000281576200027560008262000242565b6001810190506200025f565b5050565b601f821115620002d0576200029a8162000144565b620002a58462000159565b81016020851015620002b5578190505b620002cd620002c48562000159565b8301826200025e565b50505b505050565b600082821c905092915050565b6000620002f560001984600802620002d5565b1980831691505092915050565b6000620003108383620002e2565b9150826002028217905092915050565b6200032b82620000a6565b67ffffffffffffffff811115620003475762000346620000b1565b5b6200035382546200010f565b6200036082828562000285565b600060209050601f83116001811462000398576000841562000383578287015190505b6200038f858262000302565b865550620003ff565b601f198416620003a88662000144565b60005b82811015620003d257848901518255600182019150602085019450602081019050620003ab565b86831015620003f25784890151620003ee601f891682620002e2565b8355505b6001600288020188555050505b505050505050565b61083880620004176000396000f3fe608060405234801561001057600080fd5b50600436106100625760003560e01c806318160ddd1461006757806327e235e3146100855780636c02a931146100b557806379c65068146100d35780637b61c320146100ef578063d1df306c1461010d575b600080fd5b61006f610129565b60405161007c919061046a565b60405180910390f35b61009f600480360381019061009a91906104e8565b61012f565b6040516100ac919061046a565b60405180910390f35b6100bd610147565b6040516100ca91906105a5565b60405180910390f35b6100ed60048036038101906100e891906105f3565b6101d5565b005b6100f761028b565b60405161010491906105a5565b60405180910390f35b610127600480360381019061012291906105f3565b610319565b005b60025481565b60036020528060005260406000206000915090505481565b6000805461015490610662565b80601f016020809104026020016040519081016040528092919081815260200182805461018090610662565b80156101cd5780601f106101a2576101008083540402835291602001916101cd565b820191906000526020600020905b8154815290600101906020018083116101b057829003601f168201915b505050505081565b60008111610218576040517f08c379a000000000000000000000000000000000000000000000000000000000815260040161020f906106df565b60405180910390fd5b806002600082825461022a919061072e565b9250508190555080600360008473ffffffffffffffffffffffffffffffffffffffff1673ffffffffffffffffffffffffffffffffffffffff1681526020019081526020016000206000828254610280919061072e565b925050819055505050565b6001805461029890610662565b80601f01602080910402602001604051908101604052809291908181526020018280546102c490610662565b80156103115780601f106102e657610100808354040283529160200191610311565b820191906000526020600020905b8154815290600101906020018083116102f457829003601f168201915b505050505081565b6000811161035c576040517f08c379a0000000000000000000000000000000000000000000000000000000008152600401610353906106df565b60405180910390fd5b80600360008473ffffffffffffffffffffffffffffffffffffffff1673ffffffffffffffffffffffffffffffffffffffff1681526020019081526020016000205410156103de576040517f08c379a00000000000000000000000000000000000000000000000000000000081526004016103d5906107ae565b60405180910390fd5b80600260008282546103f091906107ce565b9250508190555080600360008473ffffffffffffffffffffffffffffffffffffffff1673ffffffffffffffffffffffffffffffffffffffff168152602001908152602001600020600082825461044691906107ce565b925050819055505050565b6000819050919050565b61046481610451565b82525050565b600060208201905061047f600083018461045b565b92915050565b600080fd5b600073ffffffffffffffffffffffffffffffffffffffff82169050919050565b60006104b58261048a565b9050919050565b6104c5816104aa565b81146104d057600080fd5b50565b6000813590506104e2816104bc565b92915050565b6000602082840312156104fe576104fd610485565b5b600061050c848285016104d3565b91505092915050565b600081519050919050565b600082825260208201905092915050565b60005b8381101561054f578082015181840152602081019050610534565b60008484015250505050565b6000601f19601f8301169050919050565b600061057782610515565b6105818185610520565b9350610591818560208601610531565b61059a8161055b565b840191505092915050565b600060208201905081810360008301526105bf818461056c565b905092915050565b6105d081610451565b81146105db57600080fd5b50565b6000813590506105ed816105c7565b92915050565b6000806040838503121561060a57610609610485565b5b6000610618858286016104d3565b9250506020610629858286016105de565b9150509250929050565b7f4e487b7100000000000000000000000000000000000000000000000000000000600052602260045260246000fd5b6000600282049050600182168061067a57607f821691505b60208210810361068d5761068c610633565b5b50919050565b7f56616c7565206973206c657373207468616e2030000000000000000000000000600082015250565b60006106c9601483610520565b91506106d482610693565b602082019050919050565b600060208201905081810360008301526106f8816106bc565b9050919050565b7f4e487b7100000000000000000000000000000000000000000000000000000000600052601160045260246000fd5b600061073982610451565b915061074483610451565b925082820190508082111561075c5761075b6106ff565b5b92915050565b7f6c6f772066756e64000000000000000000000000000000000000000000000000600082015250565b6000610798600883610520565b91506107a382610762565b602082019050919050565b600060208201905081810360008301526107c78161078b565b9050919050565b60006107d982610451565b91506107e483610451565b92508282039050818111156107fc576107fb6106ff565b5b9291505056fea264697066735822122087f72c5579f0c538a25b4da8947d56973d1cd2843be28413c0955f5039e270bf64736f6c63430008120033",
					"opcodes": "PUSH1 0x80 PUSH1 0x40 MSTORE PUSH1 0x40 MLOAD DUP1 PUSH1 0x40 ADD PUSH1 0x40 MSTORE DUP1 PUSH1 0x9 DUP2 MSTORE PUSH1 0x20 ADD PUSH32 0x4A6F7920546F6B656E0000000000000000000000000000000000000000000000 DUP2 MSTORE POP PUSH1 0x0 SWAP1 DUP2 PUSH3 0x4A SWAP2 SWAP1 PUSH3 0x320 JUMP JUMPDEST POP PUSH1 0x40 MLOAD DUP1 PUSH1 0x40 ADD PUSH1 0x40 MSTORE DUP1 PUSH1 0x3 DUP2 MSTORE PUSH1 0x20 ADD PUSH32 0x4A6F790000000000000000000000000000000000000000000000000000000000 DUP2 MSTORE POP PUSH1 0x1 SWAP1 DUP2 PUSH3 0x91 SWAP2 SWAP1 PUSH3 0x320 JUMP JUMPDEST POP CALLVALUE DUP1 ISZERO PUSH3 0x9F JUMPI PUSH1 0x0 DUP1 REVERT JUMPDEST POP PUSH3 0x407 JUMP JUMPDEST PUSH1 0x0 DUP2 MLOAD SWAP1 POP SWAP2 SWAP1 POP JUMP JUMPDEST PUSH32 0x4E487B7100000000000000000000000000000000000000000000000000000000 PUSH1 0x0 MSTORE PUSH1 0x41 PUSH1 0x4 MSTORE PUSH1 0x24 PUSH1 0x0 REVERT JUMPDEST PUSH32 0x4E487B7100000000000000000000000000000000000000000000000000000000 PUSH1 0x0 MSTORE PUSH1 0x22 PUSH1 0x4 MSTORE PUSH1 0x24 PUSH1 0x0 REVERT JUMPDEST PUSH1 0x0 PUSH1 0x2 DUP3 DIV SWAP1 POP PUSH1 0x1 DUP3 AND DUP1 PUSH3 0x128 JUMPI PUSH1 0x7F DUP3 AND SWAP2 POP JUMPDEST PUSH1 0x20 DUP3 LT DUP2 SUB PUSH3 0x13E JUMPI PUSH3 0x13D PUSH3 0xE0 JUMP JUMPDEST JUMPDEST POP SWAP2 SWAP1 POP JUMP JUMPDEST PUSH1 0x0 DUP2 SWAP1 POP DUP2 PUSH1 0x0 MSTORE PUSH1 0x20 PUSH1 0x0 KECCAK256 SWAP1 POP SWAP2 SWAP1 POP JUMP JUMPDEST PUSH1 0x0 PUSH1 0x20 PUSH1 0x1F DUP4 ADD DIV SWAP1 POP SWAP2 SWAP1 POP JUMP JUMPDEST PUSH1 0x0 DUP3 DUP3 SHL SWAP1 POP SWAP3 SWAP2 POP POP JUMP JUMPDEST PUSH1 0x0 PUSH1 0x8 DUP4 MUL PUSH3 0x1A8 PUSH32 0xFFFFFFFFFFFFFFFFFFFFFFFFFFFFFFFFFFFFFFFFFFFFFFFFFFFFFFFFFFFFFFFF DUP3 PUSH3 0x169 JUMP JUMPDEST PUSH3 0x1B4 DUP7 DUP4 PUSH3 0x169 JUMP JUMPDEST SWAP6 POP DUP1 NOT DUP5 AND SWAP4 POP DUP1 DUP7 AND DUP5 OR SWAP3 POP POP POP SWAP4 SWAP3 POP POP POP JUMP JUMPDEST PUSH1 0x0 DUP2 SWAP1 POP SWAP2 SWAP1 POP JUMP JUMPDEST PUSH1 0x0 DUP2 SWAP1 POP SWAP2 SWAP1 POP JUMP JUMPDEST PUSH1 0x0 PUSH3 0x201 PUSH3 0x1FB PUSH3 0x1F5 DUP5 PUSH3 0x1CC JUMP JUMPDEST PUSH3 0x1D6 JUMP JUMPDEST PUSH3 0x1CC JUMP JUMPDEST SWAP1 POP SWAP2 SWAP1 POP JUMP JUMPDEST PUSH1 0x0 DUP2 SWAP1 POP SWAP2 SWAP1 POP JUMP JUMPDEST PUSH3 0x21D DUP4 PUSH3 0x1E0 JUMP JUMPDEST PUSH3 0x235 PUSH3 0x22C DUP3 PUSH3 0x208 JUMP JUMPDEST DUP5 DUP5 SLOAD PUSH3 0x176 JUMP JUMPDEST DUP3 SSTORE POP POP POP POP JUMP JUMPDEST PUSH1 0x0 SWAP1 JUMP JUMPDEST PUSH3 0x24C PUSH3 0x23D JUMP JUMPDEST PUSH3 0x259 DUP2 DUP5 DUP5 PUSH3 0x212 JUMP JUMPDEST POP POP POP JUMP JUMPDEST JUMPDEST DUP2 DUP2 LT ISZERO PUSH3 0x281 JUMPI PUSH3 0x275 PUSH1 0x0 DUP3 PUSH3 0x242 JUMP JUMPDEST PUSH1 0x1 DUP2 ADD SWAP1 POP PUSH3 0x25F JUMP JUMPDEST POP POP JUMP JUMPDEST PUSH1 0x1F DUP3 GT ISZERO PUSH3 0x2D0 JUMPI PUSH3 0x29A DUP2 PUSH3 0x144 JUMP JUMPDEST PUSH3 0x2A5 DUP5 PUSH3 0x159 JUMP JUMPDEST DUP2 ADD PUSH1 0x20 DUP6 LT ISZERO PUSH3 0x2B5 JUMPI DUP2 SWAP1 POP JUMPDEST PUSH3 0x2CD PUSH3 0x2C4 DUP6 PUSH3 0x159 JUMP JUMPDEST DUP4 ADD DUP3 PUSH3 0x25E JUMP JUMPDEST POP POP JUMPDEST POP POP POP JUMP JUMPDEST PUSH1 0x0 DUP3 DUP3 SHR SWAP1 POP SWAP3 SWAP2 POP POP JUMP JUMPDEST PUSH1 0x0 PUSH3 0x2F5 PUSH1 0x0 NOT DUP5 PUSH1 0x8 MUL PUSH3 0x2D5 JUMP JUMPDEST NOT DUP1 DUP4 AND SWAP2 POP POP SWAP3 SWAP2 POP POP JUMP JUMPDEST PUSH1 0x0 PUSH3 0x310 DUP4 DUP4 PUSH3 0x2E2 JUMP JUMPDEST SWAP2 POP DUP3 PUSH1 0x2 MUL DUP3 OR SWAP1 POP SWAP3 SWAP2 POP POP JUMP JUMPDEST PUSH3 0x32B DUP3 PUSH3 0xA6 JUMP JUMPDEST PUSH8 0xFFFFFFFFFFFFFFFF DUP2 GT ISZERO PUSH3 0x347 JUMPI PUSH3 0x346 PUSH3 0xB1 JUMP JUMPDEST JUMPDEST PUSH3 0x353 DUP3 SLOAD PUSH3 0x10F JUMP JUMPDEST PUSH3 0x360 DUP3 DUP3 DUP6 PUSH3 0x285 JUMP JUMPDEST PUSH1 0x0 PUSH1 0x20 SWAP1 POP PUSH1 0x1F DUP4 GT PUSH1 0x1 DUP2 EQ PUSH3 0x398 JUMPI PUSH1 0x0 DUP5 ISZERO PUSH3 0x383 JUMPI DUP3 DUP8 ADD MLOAD SWAP1 POP JUMPDEST PUSH3 0x38F DUP6 DUP3 PUSH3 0x302 JUMP JUMPDEST DUP7 SSTORE POP PUSH3 0x3FF JUMP JUMPDEST PUSH1 0x1F NOT DUP5 AND PUSH3 0x3A8 DUP7 PUSH3 0x144 JUMP JUMPDEST PUSH1 0x0 JUMPDEST DUP3 DUP2 LT ISZERO PUSH3 0x3D2 JUMPI DUP5 DUP10 ADD MLOAD DUP3 SSTORE PUSH1 0x1 DUP3 ADD SWAP2 POP PUSH1 0x20 DUP6 ADD SWAP5 POP PUSH1 0x20 DUP2 ADD SWAP1 POP PUSH3 0x3AB JUMP JUMPDEST DUP7 DUP4 LT ISZERO PUSH3 0x3F2 JUMPI DUP5 DUP10 ADD MLOAD PUSH3 0x3EE PUSH1 0x1F DUP10 AND DUP3 PUSH3 0x2E2 JUMP JUMPDEST DUP4 SSTORE POP JUMPDEST PUSH1 0x1 PUSH1 0x2 DUP9 MUL ADD DUP9 SSTORE POP POP POP JUMPDEST POP POP POP POP POP POP JUMP JUMPDEST PUSH2 0x838 DUP1 PUSH3 0x417 PUSH1 0x0 CODECOPY PUSH1 0x0 RETURN INVALID PUSH1 0x80 PUSH1 0x40 MSTORE CALLVALUE DUP1 ISZERO PUSH2 0x10 JUMPI PUSH1 0x0 DUP1 REVERT JUMPDEST POP PUSH1 0x4 CALLDATASIZE LT PUSH2 0x62 JUMPI PUSH1 0x0 CALLDATALOAD PUSH1 0xE0 SHR DUP1 PUSH4 0x18160DDD EQ PUSH2 0x67 JUMPI DUP1 PUSH4 0x27E235E3 EQ PUSH2 0x85 JUMPI DUP1 PUSH4 0x6C02A931 EQ PUSH2 0xB5 JUMPI DUP1 PUSH4 0x79C65068 EQ PUSH2 0xD3 JUMPI DUP1 PUSH4 0x7B61C320 EQ PUSH2 0xEF JUMPI DUP1 PUSH4 0xD1DF306C EQ PUSH2 0x10D JUMPI JUMPDEST PUSH1 0x0 DUP1 REVERT JUMPDEST PUSH2 0x6F PUSH2 0x129 JUMP JUMPDEST PUSH1 0x40 MLOAD PUSH2 0x7C SWAP2 SWAP1 PUSH2 0x46A JUMP JUMPDEST PUSH1 0x40 MLOAD DUP1 SWAP2 SUB SWAP1 RETURN JUMPDEST PUSH2 0x9F PUSH1 0x4 DUP1 CALLDATASIZE SUB DUP2 ADD SWAP1 PUSH2 0x9A SWAP2 SWAP1 PUSH2 0x4E8 JUMP JUMPDEST PUSH2 0x12F JUMP JUMPDEST PUSH1 0x40 MLOAD PUSH2 0xAC SWAP2 SWAP1 PUSH2 0x46A JUMP JUMPDEST PUSH1 0x40 MLOAD DUP1 SWAP2 SUB SWAP1 RETURN JUMPDEST PUSH2 0xBD PUSH2 0x147 JUMP JUMPDEST PUSH1 0x40 MLOAD PUSH2 0xCA SWAP2 SWAP1 PUSH2 0x5A5 JUMP JUMPDEST PUSH1 0x40 MLOAD DUP1 SWAP2 SUB SWAP1 RETURN JUMPDEST PUSH2 0xED PUSH1 0x4 DUP1 CALLDATASIZE SUB DUP2 ADD SWAP1 PUSH2 0xE8 SWAP2 SWAP1 PUSH2 0x5F3 JUMP JUMPDEST PUSH2 0x1D5 JUMP JUMPDEST STOP JUMPDEST PUSH2 0xF7 PUSH2 0x28B JUMP JUMPDEST PUSH1 0x40 MLOAD PUSH2 0x104 SWAP2 SWAP1 PUSH2 0x5A5 JUMP JUMPDEST PUSH1 0x40 MLOAD DUP1 SWAP2 SUB SWAP1 RETURN JUMPDEST PUSH2 0x127 PUSH1 0x4 DUP1 CALLDATASIZE SUB DUP2 ADD SWAP1 PUSH2 0x122 SWAP2 SWAP1 PUSH2 0x5F3 JUMP JUMPDEST PUSH2 0x319 JUMP JUMPDEST STOP JUMPDEST PUSH1 0x2 SLOAD DUP2 JUMP JUMPDEST PUSH1 0x3 PUSH1 0x20 MSTORE DUP1 PUSH1 0x0 MSTORE PUSH1 0x40 PUSH1 0x0 KECCAK256 PUSH1 0x0 SWAP2 POP SWAP1 POP SLOAD DUP2 JUMP JUMPDEST PUSH1 0x0 DUP1 SLOAD PUSH2 0x154 SWAP1 PUSH2 0x662 JUMP JUMPDEST DUP1 PUSH1 0x1F ADD PUSH1 0x20 DUP1 SWAP2 DIV MUL PUSH1 0x20 ADD PUSH1 0x40 MLOAD SWAP1 DUP2 ADD PUSH1 0x40 MSTORE DUP1 SWAP3 SWAP2 SWAP1 DUP2 DUP2 MSTORE PUSH1 0x20 ADD DUP3 DUP1 SLOAD PUSH2 0x180 SWAP1 PUSH2 0x662 JUMP JUMPDEST DUP1 ISZERO PUSH2 0x1CD JUMPI DUP1 PUSH1 0x1F LT PUSH2 0x1A2 JUMPI PUSH2 0x100 DUP1 DUP4 SLOAD DIV MUL DUP4 MSTORE SWAP2 PUSH1 0x20 ADD SWAP2 PUSH2 0x1CD JUMP JUMPDEST DUP3 ADD SWAP2 SWAP1 PUSH1 0x0 MSTORE PUSH1 0x20 PUSH1 0x0 KECCAK256 SWAP1 JUMPDEST DUP2 SLOAD DUP2 MSTORE SWAP1 PUSH1 0x1 ADD SWAP1 PUSH1 0x20 ADD DUP1 DUP4 GT PUSH2 0x1B0 JUMPI DUP3 SWAP1 SUB PUSH1 0x1F AND DUP3 ADD SWAP2 JUMPDEST POP POP POP POP POP DUP2 JUMP JUMPDEST PUSH1 0x0 DUP2 GT PUSH2 0x218 JUMPI PUSH1 0x40 MLOAD PUSH32 0x8C379A000000000000000000000000000000000000000000000000000000000 DUP2 MSTORE PUSH1 0x4 ADD PUSH2 0x20F SWAP1 PUSH2 0x6DF JUMP JUMPDEST PUSH1 0x40 MLOAD DUP1 SWAP2 SUB SWAP1 REVERT JUMPDEST DUP1 PUSH1 0x2 PUSH1 0x0 DUP3 DUP3 SLOAD PUSH2 0x22A SWAP2 SWAP1 PUSH2 0x72E JUMP JUMPDEST SWAP3 POP POP DUP2 SWAP1 SSTORE POP DUP1 PUSH1 0x3 PUSH1 0x0 DUP5 PUSH20 0xFFFFFFFFFFFFFFFFFFFFFFFFFFFFFFFFFFFFFFFF AND PUSH20 0xFFFFFFFFFFFFFFFFFFFFFFFFFFFFFFFFFFFFFFFF AND DUP2 MSTORE PUSH1 0x20 ADD SWAP1 DUP2 MSTORE PUSH1 0x20 ADD PUSH1 0x0 KECCAK256 PUSH1 0x0 DUP3 DUP3 SLOAD PUSH2 0x280 SWAP2 SWAP1 PUSH2 0x72E JUMP JUMPDEST SWAP3 POP POP DUP2 SWAP1 SSTORE POP POP POP JUMP JUMPDEST PUSH1 0x1 DUP1 SLOAD PUSH2 0x298 SWAP1 PUSH2 0x662 JUMP JUMPDEST DUP1 PUSH1 0x1F ADD PUSH1 0x20 DUP1 SWAP2 DIV MUL PUSH1 0x20 ADD PUSH1 0x40 MLOAD SWAP1 DUP2 ADD PUSH1 0x40 MSTORE DUP1 SWAP3 SWAP2 SWAP1 DUP2 DUP2 MSTORE PUSH1 0x20 ADD DUP3 DUP1 SLOAD PUSH2 0x2C4 SWAP1 PUSH2 0x662 JUMP JUMPDEST DUP1 ISZERO PUSH2 0x311 JUMPI DUP1 PUSH1 0x1F LT PUSH2 0x2E6 JUMPI PUSH2 0x100 DUP1 DUP4 SLOAD DIV MUL DUP4 MSTORE SWAP2 PUSH1 0x20 ADD SWAP2 PUSH2 0x311 JUMP JUMPDEST DUP3 ADD SWAP2 SWAP1 PUSH1 0x0 MSTORE PUSH1 0x20 PUSH1 0x0 KECCAK256 SWAP1 JUMPDEST DUP2 SLOAD DUP2 MSTORE SWAP1 PUSH1 0x1 ADD SWAP1 PUSH1 0x20 ADD DUP1 DUP4 GT PUSH2 0x2F4 JUMPI DUP3 SWAP1 SUB PUSH1 0x1F AND DUP3 ADD SWAP2 JUMPDEST POP POP POP POP POP DUP2 JUMP JUMPDEST PUSH1 0x0 DUP2 GT PUSH2 0x35C JUMPI PUSH1 0x40 MLOAD PUSH32 0x8C379A000000000000000000000000000000000000000000000000000000000 DUP2 MSTORE PUSH1 0x4 ADD PUSH2 0x353 SWAP1 PUSH2 0x6DF JUMP JUMPDEST PUSH1 0x40 MLOAD DUP1 SWAP2 SUB SWAP1 REVERT JUMPDEST DUP1 PUSH1 0x3 PUSH1 0x0 DUP5 PUSH20 0xFFFFFFFFFFFFFFFFFFFFFFFFFFFFFFFFFFFFFFFF AND PUSH20 0xFFFFFFFFFFFFFFFFFFFFFFFFFFFFFFFFFFFFFFFF AND DUP2 MSTORE PUSH1 0x20 ADD SWAP1 DUP2 MSTORE PUSH1 0x20 ADD PUSH1 0x0 KECCAK256 SLOAD LT ISZERO PUSH2 0x3DE JUMPI PUSH1 0x40 MLOAD PUSH32 0x8C379A000000000000000000000000000000000000000000000000000000000 DUP2 MSTORE PUSH1 0x4 ADD PUSH2 0x3D5 SWAP1 PUSH2 0x7AE JUMP JUMPDEST PUSH1 0x40 MLOAD DUP1 SWAP2 SUB SWAP1 REVERT JUMPDEST DUP1 PUSH1 0x2 PUSH1 0x0 DUP3 DUP3 SLOAD PUSH2 0x3F0 SWAP2 SWAP1 PUSH2 0x7CE JUMP JUMPDEST SWAP3 POP POP DUP2 SWAP1 SSTORE POP DUP1 PUSH1 0x3 PUSH1 0x0 DUP5 PUSH20 0xFFFFFFFFFFFFFFFFFFFFFFFFFFFFFFFFFFFFFFFF AND PUSH20 0xFFFFFFFFFFFFFFFFFFFFFFFFFFFFFFFFFFFFFFFF AND DUP2 MSTORE PUSH1 0x20 ADD SWAP1 DUP2 MSTORE PUSH1 0x20 ADD PUSH1 0x0 KECCAK256 PUSH1 0x0 DUP3 DUP3 SLOAD PUSH2 0x446 SWAP2 SWAP1 PUSH2 0x7CE JUMP JUMPDEST SWAP3 POP POP DUP2 SWAP1 SSTORE POP POP POP JUMP JUMPDEST PUSH1 0x0 DUP2 SWAP1 POP SWAP2 SWAP1 POP JUMP JUMPDEST PUSH2 0x464 DUP2 PUSH2 0x451 JUMP JUMPDEST DUP3 MSTORE POP POP JUMP JUMPDEST PUSH1 0x0 PUSH1 0x20 DUP3 ADD SWAP1 POP PUSH2 0x47F PUSH1 0x0 DUP4 ADD DUP5 PUSH2 0x45B JUMP JUMPDEST SWAP3 SWAP2 POP POP JUMP JUMPDEST PUSH1 0x0 DUP1 REVERT JUMPDEST PUSH1 0x0 PUSH20 0xFFFFFFFFFFFFFFFFFFFFFFFFFFFFFFFFFFFFFFFF DUP3 AND SWAP1 POP SWAP2 SWAP1 POP JUMP JUMPDEST PUSH1 0x0 PUSH2 0x4B5 DUP3 PUSH2 0x48A JUMP JUMPDEST SWAP1 POP SWAP2 SWAP1 POP JUMP JUMPDEST PUSH2 0x4C5 DUP2 PUSH2 0x4AA JUMP JUMPDEST DUP2 EQ PUSH2 0x4D0 JUMPI PUSH1 0x0 DUP1 REVERT JUMPDEST POP JUMP JUMPDEST PUSH1 0x0 DUP2 CALLDATALOAD SWAP1 POP PUSH2 0x4E2 DUP2 PUSH2 0x4BC JUMP JUMPDEST SWAP3 SWAP2 POP POP JUMP JUMPDEST PUSH1 0x0 PUSH1 0x20 DUP3 DUP5 SUB SLT ISZERO PUSH2 0x4FE JUMPI PUSH2 0x4FD PUSH2 0x485 JUMP JUMPDEST JUMPDEST PUSH1 0x0 PUSH2 0x50C DUP5 DUP3 DUP6 ADD PUSH2 0x4D3 JUMP JUMPDEST SWAP2 POP POP SWAP3 SWAP2 POP POP JUMP JUMPDEST PUSH1 0x0 DUP2 MLOAD SWAP1 POP SWAP2 SWAP1 POP JUMP JUMPDEST PUSH1 0x0 DUP3 DUP3 MSTORE PUSH1 0x20 DUP3 ADD SWAP1 POP SWAP3 SWAP2 POP POP JUMP JUMPDEST PUSH1 0x0 JUMPDEST DUP4 DUP2 LT ISZERO PUSH2 0x54F JUMPI DUP1 DUP3 ADD MLOAD DUP2 DUP5 ADD MSTORE PUSH1 0x20 DUP2 ADD SWAP1 POP PUSH2 0x534 JUMP JUMPDEST PUSH1 0x0 DUP5 DUP5 ADD MSTORE POP POP POP POP JUMP JUMPDEST PUSH1 0x0 PUSH1 0x1F NOT PUSH1 0x1F DUP4 ADD AND SWAP1 POP SWAP2 SWAP1 POP JUMP JUMPDEST PUSH1 0x0 PUSH2 0x577 DUP3 PUSH2 0x515 JUMP JUMPDEST PUSH2 0x581 DUP2 DUP6 PUSH2 0x520 JUMP JUMPDEST SWAP4 POP PUSH2 0x591 DUP2 DUP6 PUSH1 0x20 DUP7 ADD PUSH2 0x531 JUMP JUMPDEST PUSH2 0x59A DUP2 PUSH2 0x55B JUMP JUMPDEST DUP5 ADD SWAP2 POP POP SWAP3 SWAP2 POP POP JUMP JUMPDEST PUSH1 0x0 PUSH1 0x20 DUP3 ADD SWAP1 POP DUP2 DUP2 SUB PUSH1 0x0 DUP4 ADD MSTORE PUSH2 0x5BF DUP2 DUP5 PUSH2 0x56C JUMP JUMPDEST SWAP1 POP SWAP3 SWAP2 POP POP JUMP JUMPDEST PUSH2 0x5D0 DUP2 PUSH2 0x451 JUMP JUMPDEST DUP2 EQ PUSH2 0x5DB JUMPI PUSH1 0x0 DUP1 REVERT JUMPDEST POP JUMP JUMPDEST PUSH1 0x0 DUP2 CALLDATALOAD SWAP1 POP PUSH2 0x5ED DUP2 PUSH2 0x5C7 JUMP JUMPDEST SWAP3 SWAP2 POP POP JUMP JUMPDEST PUSH1 0x0 DUP1 PUSH1 0x40 DUP4 DUP6 SUB SLT ISZERO PUSH2 0x60A JUMPI PUSH2 0x609 PUSH2 0x485 JUMP JUMPDEST JUMPDEST PUSH1 0x0 PUSH2 0x618 DUP6 DUP3 DUP7 ADD PUSH2 0x4D3 JUMP JUMPDEST SWAP3 POP POP PUSH1 0x20 PUSH2 0x629 DUP6 DUP3 DUP7 ADD PUSH2 0x5DE JUMP JUMPDEST SWAP2 POP POP SWAP3 POP SWAP3 SWAP1 POP JUMP JUMPDEST PUSH32 0x4E487B7100000000000000000000000000000000000000000000000000000000 PUSH1 0x0 MSTORE PUSH1 0x22 PUSH1 0x4 MSTORE PUSH1 0x24 PUSH1 0x0 REVERT JUMPDEST PUSH1 0x0 PUSH1 0x2 DUP3 DIV SWAP1 POP PUSH1 0x1 DUP3 AND DUP1 PUSH2 0x67A JUMPI PUSH1 0x7F DUP3 AND SWAP2 POP JUMPDEST PUSH1 0x20 DUP3 LT DUP2 SUB PUSH2 0x68D JUMPI PUSH2 0x68C PUSH2 0x633 JUMP JUMPDEST JUMPDEST POP SWAP2 SWAP1 POP JUMP JUMPDEST PUSH32 0x56616C7565206973206C657373207468616E2030000000000000000000000000 PUSH1 0x0 DUP3 ADD MSTORE POP JUMP JUMPDEST PUSH1 0x0 PUSH2 0x6C9 PUSH1 0x14 DUP4 PUSH2 0x520 JUMP JUMPDEST SWAP2 POP PUSH2 0x6D4 DUP3 PUSH2 0x693 JUMP JUMPDEST PUSH1 0x20 DUP3 ADD SWAP1 POP SWAP2 SWAP1 POP JUMP JUMPDEST PUSH1 0x0 PUSH1 0x20 DUP3 ADD SWAP1 POP DUP2 DUP2 SUB PUSH1 0x0 DUP4 ADD MSTORE PUSH2 0x6F8 DUP2 PUSH2 0x6BC JUMP JUMPDEST SWAP1 POP SWAP2 SWAP1 POP JUMP JUMPDEST PUSH32 0x4E487B7100000000000000000000000000000000000000000000000000000000 PUSH1 0x0 MSTORE PUSH1 0x11 PUSH1 0x4 MSTORE PUSH1 0x24 PUSH1 0x0 REVERT JUMPDEST PUSH1 0x0 PUSH2 0x739 DUP3 PUSH2 0x451 JUMP JUMPDEST SWAP2 POP PUSH2 0x744 DUP4 PUSH2 0x451 JUMP JUMPDEST SWAP3 POP DUP3 DUP3 ADD SWAP1 POP DUP1 DUP3 GT ISZERO PUSH2 0x75C JUMPI PUSH2 0x75B PUSH2 0x6FF JUMP JUMPDEST JUMPDEST SWAP3 SWAP2 POP POP JUMP JUMPDEST PUSH32 0x6C6F772066756E64000000000000000000000000000000000000000000000000 PUSH1 0x0 DUP3 ADD MSTORE POP JUMP JUMPDEST PUSH1 0x0 PUSH2 0x798 PUSH1 0x8 DUP4 PUSH2 0x520 JUMP JUMPDEST SWAP2 POP PUSH2 0x7A3 DUP3 PUSH2 0x762 JUMP JUMPDEST PUSH1 0x20 DUP3 ADD SWAP1 POP SWAP2 SWAP1 POP JUMP JUMPDEST PUSH1 0x0 PUSH1 0x20 DUP3 ADD SWAP1 POP DUP2 DUP2 SUB PUSH1 0x0 DUP4 ADD MSTORE PUSH2 0x7C7 DUP2 PUSH2 0x78B JUMP JUMPDEST SWAP1 POP SWAP2 SWAP1 POP JUMP JUMPDEST PUSH1 0x0 PUSH2 0x7D9 DUP3 PUSH2 0x451 JUMP JUMPDEST SWAP2 POP PUSH2 0x7E4 DUP4 PUSH2 0x451 JUMP JUMPDEST SWAP3 POP DUP3 DUP3 SUB SWAP1 POP DUP2 DUP2 GT ISZERO PUSH2 0x7FC JUMPI PUSH2 0x7FB PUSH2 0x6FF JUMP JUMPDEST JUMPDEST SWAP3 SWAP2 POP POP JUMP INVALID LOG2 PUSH5 0x6970667358 0x22 SLT KECCAK256 DUP8 0xF7 0x2C SSTORE PUSH26 0xF0C538A25B4DA8947D56973D1CD2843BE28413C0955F5039E270 0xBF PUSH5 0x736F6C6343 STOP ADDMOD SLT STOP CALLER "
				},
				"gasEstimates": {
					"creation": {
						"codeDepositCost": "420800",
						"executionCost": "infinite",
						"totalCost": "infinite"
					},
					"external": {
						"balances(address)": "2814",
						"burnToken(address,uint256)": "infinite",
						"mintToken(address,uint256)": "infinite",
						"tokenName()": "infinite",
						"tokenSymbol()": "infinite",
						"totalSupply()": "2407"
					}
				},
				"methodIdentifiers": {
					"balances(address)": "27e235e3",
					"burnToken(address,uint256)": "d1df306c",
					"mintToken(address,uint256)": "79c65068",
					"tokenName()": "6c02a931",
					"tokenSymbol()": "7b61c320",
					"totalSupply()": "18160ddd"
				}
			},
			"storageLayout": {
				"storage": [
					{
						"astId": 4,
						"contract": "Joytoken/joytoken.sol:JoyToken",
						"label": "tokenName",
						"offset": 0,
						"slot": "0",
						"type": "t_string_storage"
					},
					{
						"astId": 7,
						"contract": "Joytoken/joytoken.sol:JoyToken",
						"label": "tokenSymbol",
						"offset": 0,
						"slot": "1",
						"type": "t_string_storage"
					},
					{
						"astId": 9,
						"contract": "Joytoken/joytoken.sol:JoyToken",
						"label": "totalSupply",
						"offset": 0,
						"slot": "2",
						"type": "t_uint256"
					},
					{
						"astId": 13,
						"contract": "Joytoken/joytoken.sol:JoyToken",
						"label": "balances",
						"offset": 0,
						"slot": "3",
						"type": "t_mapping(t_address,t_uint256)"
					}
				],
				"types": {
					"t_address": {
						"encoding": "inplace",
						"label": "address",
						"numberOfBytes": "20"
					},
					"t_mapping(t_address,t_uint256)": {
						"encoding": "mapping",
						"key": "t_address",
						"label": "mapping(address => uint256)",
						"numberOfBytes": "32",
						"value": "t_uint256"
					},
					"t_string_storage": {
						"encoding": "bytes",
						"label": "string",
						"numberOfBytes": "32"
					},
					"t_uint256": {
						"encoding": "inplace",
						"label": "uint256",
						"numberOfBytes": "32"
					}
				}
			},
			"userdoc": {
				"kind": "user",
				"methods": {},
				"version": 1
			}
		}
	}
}